{
  "address": "0x9bb7d556A4eB463b213135dF3184303cbDD52E1D",
  "abi": [
    {
      "inputs": [
        {
          "internalType": "contract IBookManager",
          "name": "bookManager_",
          "type": "address"
        },
        {
          "internalType": "uint256",
          "name": "burnFeeRate_",
          "type": "uint256"
        },
        {
          "internalType": "string",
          "name": "name_",
          "type": "string"
        },
        {
          "internalType": "string",
          "name": "symbol_",
          "type": "string"
        }
      ],
      "stateMutability": "nonpayable",
      "type": "constructor"
    },
    {
      "inputs": [
        {
          "internalType": "address",
          "name": "target",
          "type": "address"
        }
      ],
      "name": "AddressEmptyCode",
      "type": "error"
    },
    {
      "inputs": [],
      "name": "AlreadyOpened",
      "type": "error"
    },
    {
      "inputs": [
        {
          "internalType": "address",
          "name": "implementation",
          "type": "address"
        }
      ],
      "name": "ERC1967InvalidImplementation",
      "type": "error"
    },
    {
      "inputs": [],
      "name": "ERC1967NonPayable",
      "type": "error"
    },
    {
      "inputs": [],
      "name": "ERC20TransferFailed",
      "type": "error"
    },
    {
      "inputs": [],
      "name": "FailedCall",
      "type": "error"
    },
    {
      "inputs": [],
      "name": "InvalidAmount",
      "type": "error"
    },
    {
      "inputs": [],
      "name": "InvalidBookPair",
      "type": "error"
    },
    {
      "inputs": [],
      "name": "InvalidHook",
      "type": "error"
    },
    {
      "inputs": [],
      "name": "InvalidInitialization",
      "type": "error"
    },
    {
      "inputs": [],
      "name": "InvalidLockAcquiredSender",
      "type": "error"
    },
    {
      "inputs": [],
      "name": "InvalidLockCaller",
      "type": "error"
    },
    {
      "inputs": [],
      "name": "InvalidRate",
      "type": "error"
    },
    {
      "inputs": [],
      "name": "InvalidStrategy",
      "type": "error"
    },
    {
      "inputs": [],
      "name": "InvalidTick",
      "type": "error"
    },
    {
      "inputs": [],
      "name": "InvalidValue",
      "type": "error"
    },
    {
      "inputs": [],
      "name": "LockFailure",
      "type": "error"
    },
    {
      "inputs": [],
      "name": "NativeTransferFailed",
      "type": "error"
    },
    {
      "inputs": [],
      "name": "NotInitializing",
      "type": "error"
    },
    {
      "inputs": [],
      "name": "NotSelf",
      "type": "error"
    },
    {
      "inputs": [
        {
          "internalType": "address",
          "name": "owner",
          "type": "address"
        }
      ],
      "name": "OwnableInvalidOwner",
      "type": "error"
    },
    {
      "inputs": [
        {
          "internalType": "address",
          "name": "account",
          "type": "address"
        }
      ],
      "name": "OwnableUnauthorizedAccount",
      "type": "error"
    },
    {
      "inputs": [],
      "name": "ReentrancyGuardReentrantCall",
      "type": "error"
    },
    {
      "inputs": [
        {
          "internalType": "uint8",
          "name": "bits",
          "type": "uint8"
        },
        {
          "internalType": "uint256",
          "name": "value",
          "type": "uint256"
        }
      ],
      "name": "SafeCastOverflowedUintDowncast",
      "type": "error"
    },
    {
      "inputs": [
        {
          "internalType": "address",
          "name": "token",
          "type": "address"
        }
      ],
      "name": "SafeERC20FailedOperation",
      "type": "error"
    },
    {
      "inputs": [],
      "name": "Slippage",
      "type": "error"
    },
    {
      "inputs": [],
      "name": "UUPSUnauthorizedCallContext",
      "type": "error"
    },
    {
      "inputs": [
        {
          "internalType": "bytes32",
          "name": "slot",
          "type": "bytes32"
        }
      ],
      "name": "UUPSUnsupportedProxiableUUID",
      "type": "error"
    },
    {
      "anonymous": false,
      "inputs": [
        {
          "indexed": true,
          "internalType": "address",
          "name": "owner",
          "type": "address"
        },
        {
          "indexed": true,
          "internalType": "address",
          "name": "spender",
          "type": "address"
        },
        {
          "indexed": true,
          "internalType": "uint256",
          "name": "id",
          "type": "uint256"
        },
        {
          "indexed": false,
          "internalType": "uint256",
          "name": "amount",
          "type": "uint256"
        }
      ],
      "name": "Approval",
      "type": "event"
    },
    {
      "anonymous": false,
      "inputs": [
        {
          "indexed": true,
          "internalType": "address",
          "name": "user",
          "type": "address"
        },
        {
          "indexed": true,
          "internalType": "bytes32",
          "name": "key",
          "type": "bytes32"
        },
        {
          "indexed": false,
          "internalType": "uint256",
          "name": "lpAmount",
          "type": "uint256"
        },
        {
          "indexed": false,
          "internalType": "uint256",
          "name": "amountA",
          "type": "uint256"
        },
        {
          "indexed": false,
          "internalType": "uint256",
          "name": "amountB",
          "type": "uint256"
        },
        {
          "indexed": false,
          "internalType": "uint256",
          "name": "feeA",
          "type": "uint256"
        },
        {
          "indexed": false,
          "internalType": "uint256",
          "name": "feeB",
          "type": "uint256"
        }
      ],
      "name": "Burn",
      "type": "event"
    },
    {
      "anonymous": false,
      "inputs": [
        {
          "indexed": true,
          "internalType": "bytes32",
          "name": "key",
          "type": "bytes32"
        },
        {
          "indexed": false,
          "internalType": "uint256",
          "name": "canceledAmountA",
          "type": "uint256"
        },
        {
          "indexed": false,
          "internalType": "uint256",
          "name": "canceledAmountB",
          "type": "uint256"
        }
      ],
      "name": "Cancel",
      "type": "event"
    },
    {
      "anonymous": false,
      "inputs": [
        {
          "indexed": true,
          "internalType": "bytes32",
          "name": "key",
          "type": "bytes32"
        },
        {
          "indexed": false,
          "internalType": "uint256",
          "name": "claimedAmountA",
          "type": "uint256"
        },
        {
          "indexed": false,
          "internalType": "uint256",
          "name": "claimedAmountB",
          "type": "uint256"
        }
      ],
      "name": "Claim",
      "type": "event"
    },
    {
      "anonymous": false,
      "inputs": [
        {
          "indexed": true,
          "internalType": "Currency",
          "name": "currency",
          "type": "address"
        },
        {
          "indexed": true,
          "internalType": "address",
          "name": "to",
          "type": "address"
        },
        {
          "indexed": false,
          "internalType": "uint256",
          "name": "amount",
          "type": "uint256"
        }
      ],
      "name": "Collect",
      "type": "event"
    },
    {
      "anonymous": false,
      "inputs": [
        {
          "indexed": false,
          "internalType": "uint64",
          "name": "version",
          "type": "uint64"
        }
      ],
      "name": "Initialized",
      "type": "event"
    },
    {
      "anonymous": false,
      "inputs": [
        {
          "indexed": true,
          "internalType": "address",
          "name": "user",
          "type": "address"
        },
        {
          "indexed": true,
          "internalType": "bytes32",
          "name": "key",
          "type": "bytes32"
        },
        {
          "indexed": false,
          "internalType": "uint256",
          "name": "amountA",
          "type": "uint256"
        },
        {
          "indexed": false,
          "internalType": "uint256",
          "name": "amountB",
          "type": "uint256"
        },
        {
          "indexed": false,
          "internalType": "uint256",
          "name": "lpAmount",
          "type": "uint256"
        }
      ],
      "name": "Mint",
      "type": "event"
    },
    {
      "anonymous": false,
      "inputs": [
        {
          "indexed": true,
          "internalType": "bytes32",
          "name": "key",
          "type": "bytes32"
        },
        {
          "indexed": true,
          "internalType": "BookId",
          "name": "bookIdA",
          "type": "uint192"
        },
        {
          "indexed": true,
          "internalType": "BookId",
          "name": "bookIdB",
          "type": "uint192"
        },
        {
          "indexed": false,
          "internalType": "bytes32",
          "name": "salt",
          "type": "bytes32"
        },
        {
          "indexed": false,
          "internalType": "address",
          "name": "strategy",
          "type": "address"
        }
      ],
      "name": "Open",
      "type": "event"
    },
    {
      "anonymous": false,
      "inputs": [
        {
          "indexed": true,
          "internalType": "address",
          "name": "owner",
          "type": "address"
        },
        {
          "indexed": true,
          "internalType": "address",
          "name": "operator",
          "type": "address"
        },
        {
          "indexed": false,
          "internalType": "bool",
          "name": "approved",
          "type": "bool"
        }
      ],
      "name": "OperatorSet",
      "type": "event"
    },
    {
      "anonymous": false,
      "inputs": [
        {
          "indexed": true,
          "internalType": "address",
          "name": "previousOwner",
          "type": "address"
        },
        {
          "indexed": true,
          "internalType": "address",
          "name": "newOwner",
          "type": "address"
        }
      ],
      "name": "OwnershipTransferStarted",
      "type": "event"
    },
    {
      "anonymous": false,
      "inputs": [
        {
          "indexed": true,
          "internalType": "address",
          "name": "previousOwner",
          "type": "address"
        },
        {
          "indexed": true,
          "internalType": "address",
          "name": "newOwner",
          "type": "address"
        }
      ],
      "name": "OwnershipTransferred",
      "type": "event"
    },
    {
      "anonymous": false,
      "inputs": [
        {
          "indexed": true,
          "internalType": "bytes32",
          "name": "key",
          "type": "bytes32"
        }
      ],
      "name": "Rebalance",
      "type": "event"
    },
    {
      "anonymous": false,
      "inputs": [
        {
          "indexed": false,
          "internalType": "address",
          "name": "caller",
          "type": "address"
        },
        {
          "indexed": true,
          "internalType": "address",
          "name": "from",
          "type": "address"
        },
        {
          "indexed": true,
          "internalType": "address",
          "name": "to",
          "type": "address"
        },
        {
          "indexed": true,
          "internalType": "uint256",
          "name": "id",
          "type": "uint256"
        },
        {
          "indexed": false,
          "internalType": "uint256",
          "name": "amount",
          "type": "uint256"
        }
      ],
      "name": "Transfer",
      "type": "event"
    },
    {
      "anonymous": false,
      "inputs": [
        {
          "indexed": true,
          "internalType": "address",
          "name": "implementation",
          "type": "address"
        }
      ],
      "name": "Upgraded",
      "type": "event"
    },
    {
      "inputs": [],
      "name": "RATE_PRECISION",
      "outputs": [
        {
          "internalType": "uint256",
          "name": "",
          "type": "uint256"
        }
      ],
      "stateMutability": "view",
      "type": "function"
    },
    {
      "inputs": [],
      "name": "UPGRADE_INTERFACE_VERSION",
      "outputs": [
        {
          "internalType": "string",
          "name": "",
          "type": "string"
        }
      ],
      "stateMutability": "view",
      "type": "function"
    },
    {
      "inputs": [
        {
          "internalType": "bytes32",
          "name": "key",
          "type": "bytes32"
        },
        {
          "internalType": "address",
          "name": "user",
          "type": "address"
        },
        {
          "internalType": "uint256",
          "name": "burnAmount",
          "type": "uint256"
        }
      ],
      "name": "_burn",
      "outputs": [
        {
          "internalType": "uint256",
          "name": "withdrawalA",
          "type": "uint256"
        },
        {
          "internalType": "uint256",
          "name": "withdrawalB",
          "type": "uint256"
        }
      ],
      "stateMutability": "nonpayable",
      "type": "function"
    },
    {
      "inputs": [
        {
          "components": [
            {
              "internalType": "Currency",
              "name": "base",
              "type": "address"
            },
            {
              "internalType": "uint64",
              "name": "unitSize",
              "type": "uint64"
            },
            {
              "internalType": "Currency",
              "name": "quote",
              "type": "address"
            },
            {
              "internalType": "FeePolicy",
              "name": "makerPolicy",
              "type": "uint24"
            },
            {
              "internalType": "contract IHooks",
              "name": "hooks",
              "type": "address"
            },
            {
              "internalType": "FeePolicy",
              "name": "takerPolicy",
              "type": "uint24"
            }
          ],
          "internalType": "struct IBookManager.BookKey",
          "name": "bookKeyA",
          "type": "tuple"
        },
        {
          "components": [
            {
              "internalType": "Currency",
              "name": "base",
              "type": "address"
            },
            {
              "internalType": "uint64",
              "name": "unitSize",
              "type": "uint64"
            },
            {
              "internalType": "Currency",
              "name": "quote",
              "type": "address"
            },
            {
              "internalType": "FeePolicy",
              "name": "makerPolicy",
              "type": "uint24"
            },
            {
              "internalType": "contract IHooks",
              "name": "hooks",
              "type": "address"
            },
            {
              "internalType": "FeePolicy",
              "name": "takerPolicy",
              "type": "uint24"
            }
          ],
          "internalType": "struct IBookManager.BookKey",
          "name": "bookKeyB",
          "type": "tuple"
        },
        {
          "internalType": "bytes32",
          "name": "salt",
          "type": "bytes32"
        },
        {
          "internalType": "address",
          "name": "strategy",
          "type": "address"
        }
      ],
      "name": "_open",
      "outputs": [
        {
          "internalType": "bytes32",
          "name": "key",
          "type": "bytes32"
        }
      ],
      "stateMutability": "nonpayable",
      "type": "function"
    },
    {
      "inputs": [
        {
          "internalType": "bytes32",
          "name": "key",
          "type": "bytes32"
        }
      ],
      "name": "_rebalance",
      "outputs": [],
      "stateMutability": "nonpayable",
      "type": "function"
    },
    {
      "inputs": [],
      "name": "acceptOwnership",
      "outputs": [],
      "stateMutability": "nonpayable",
      "type": "function"
    },
    {
      "inputs": [
        {
          "internalType": "address",
          "name": "",
          "type": "address"
        },
        {
          "internalType": "address",
          "name": "",
          "type": "address"
        },
        {
          "internalType": "uint256",
          "name": "",
          "type": "uint256"
        }
      ],
      "name": "allowance",
      "outputs": [
        {
          "internalType": "uint256",
          "name": "",
          "type": "uint256"
        }
      ],
      "stateMutability": "view",
      "type": "function"
    },
    {
      "inputs": [
        {
          "internalType": "address",
          "name": "spender",
          "type": "address"
        },
        {
          "internalType": "uint256",
          "name": "id",
          "type": "uint256"
        },
        {
          "internalType": "uint256",
          "name": "amount",
          "type": "uint256"
        }
      ],
      "name": "approve",
      "outputs": [
        {
          "internalType": "bool",
          "name": "",
          "type": "bool"
        }
      ],
      "stateMutability": "nonpayable",
      "type": "function"
    },
    {
      "inputs": [
        {
          "internalType": "address",
          "name": "",
          "type": "address"
        },
        {
          "internalType": "uint256",
          "name": "",
          "type": "uint256"
        }
      ],
      "name": "balanceOf",
      "outputs": [
        {
          "internalType": "uint256",
          "name": "",
          "type": "uint256"
        }
      ],
      "stateMutability": "view",
      "type": "function"
    },
    {
      "inputs": [],
      "name": "bookManager",
      "outputs": [
        {
          "internalType": "contract IBookManager",
          "name": "",
          "type": "address"
        }
      ],
      "stateMutability": "view",
      "type": "function"
    },
    {
      "inputs": [
        {
          "internalType": "BookId",
          "name": "",
          "type": "uint192"
        }
      ],
      "name": "bookPair",
      "outputs": [
        {
          "internalType": "BookId",
          "name": "",
          "type": "uint192"
        }
      ],
      "stateMutability": "view",
      "type": "function"
    },
    {
      "inputs": [
        {
          "internalType": "bytes32",
          "name": "key",
          "type": "bytes32"
        },
        {
          "internalType": "uint256",
          "name": "amount",
          "type": "uint256"
        },
        {
          "internalType": "uint256",
          "name": "minAmountA",
          "type": "uint256"
        },
        {
          "internalType": "uint256",
          "name": "minAmountB",
          "type": "uint256"
        }
      ],
      "name": "burn",
      "outputs": [
        {
          "internalType": "uint256",
          "name": "withdrawalA",
          "type": "uint256"
        },
        {
          "internalType": "uint256",
          "name": "withdrawalB",
          "type": "uint256"
        }
      ],
      "stateMutability": "nonpayable",
      "type": "function"
    },
    {
      "inputs": [],
      "name": "burnFeeRate",
      "outputs": [
        {
          "internalType": "uint256",
          "name": "",
          "type": "uint256"
        }
      ],
      "stateMutability": "view",
      "type": "function"
    },
    {
      "inputs": [
        {
          "internalType": "Currency",
          "name": "currency",
          "type": "address"
        },
        {
          "internalType": "address",
          "name": "to",
          "type": "address"
        }
      ],
      "name": "collect",
      "outputs": [],
      "stateMutability": "nonpayable",
      "type": "function"
    },
    {
      "inputs": [
        {
          "internalType": "uint256",
          "name": "",
          "type": "uint256"
        }
      ],
      "name": "decimals",
      "outputs": [
        {
          "internalType": "uint8",
          "name": "",
          "type": "uint8"
        }
      ],
      "stateMutability": "pure",
      "type": "function"
    },
    {
      "inputs": [
        {
          "internalType": "Currency",
          "name": "",
          "type": "address"
        }
      ],
      "name": "fees",
      "outputs": [
        {
          "internalType": "uint256",
          "name": "",
          "type": "uint256"
        }
      ],
      "stateMutability": "view",
      "type": "function"
    },
    {
      "inputs": [
        {
          "internalType": "bytes32",
          "name": "key",
          "type": "bytes32"
        }
      ],
      "name": "getBookPairs",
      "outputs": [
        {
          "internalType": "BookId",
          "name": "",
          "type": "uint192"
        },
        {
          "internalType": "BookId",
          "name": "",
          "type": "uint192"
        }
      ],
      "stateMutability": "view",
      "type": "function"
    },
    {
      "inputs": [
        {
          "internalType": "bytes32",
          "name": "key",
          "type": "bytes32"
        }
      ],
      "name": "getLiquidity",
      "outputs": [
        {
          "components": [
            {
              "internalType": "uint256",
              "name": "reserve",
              "type": "uint256"
            },
            {
              "internalType": "uint256",
              "name": "claimable",
              "type": "uint256"
            },
            {
              "internalType": "uint256",
              "name": "cancelable",
              "type": "uint256"
            }
          ],
          "internalType": "struct ILiquidityVault.Liquidity",
          "name": "liquidityA",
          "type": "tuple"
        },
        {
          "components": [
            {
              "internalType": "uint256",
              "name": "reserve",
              "type": "uint256"
            },
            {
              "internalType": "uint256",
              "name": "claimable",
              "type": "uint256"
            },
            {
              "internalType": "uint256",
              "name": "cancelable",
              "type": "uint256"
            }
          ],
          "internalType": "struct ILiquidityVault.Liquidity",
          "name": "liquidityB",
          "type": "tuple"
        }
      ],
      "stateMutability": "view",
      "type": "function"
    },
    {
      "inputs": [
        {
          "internalType": "bytes32",
          "name": "key",
          "type": "bytes32"
        }
      ],
      "name": "getPool",
      "outputs": [
        {
          "components": [
            {
              "internalType": "BookId",
              "name": "bookIdA",
              "type": "uint192"
            },
            {
              "internalType": "BookId",
              "name": "bookIdB",
              "type": "uint192"
            },
            {
              "internalType": "contract IStrategy",
              "name": "strategy",
              "type": "address"
            },
            {
              "internalType": "uint256",
              "name": "reserveA",
              "type": "uint256"
            },
            {
              "internalType": "uint256",
              "name": "reserveB",
              "type": "uint256"
            },
            {
              "internalType": "OrderId[]",
              "name": "orderListA",
              "type": "uint256[]"
            },
            {
              "internalType": "OrderId[]",
              "name": "orderListB",
              "type": "uint256[]"
            }
          ],
          "internalType": "struct ILiquidityVault.Pool",
          "name": "",
          "type": "tuple"
        }
      ],
      "stateMutability": "view",
      "type": "function"
    },
    {
      "inputs": [
        {
          "internalType": "address",
          "name": "initialOwner",
          "type": "address"
        }
      ],
      "name": "initialize",
      "outputs": [],
      "stateMutability": "nonpayable",
      "type": "function"
    },
    {
      "inputs": [
        {
          "internalType": "address",
          "name": "",
          "type": "address"
        },
        {
          "internalType": "address",
          "name": "",
          "type": "address"
        }
      ],
      "name": "isOperator",
      "outputs": [
        {
          "internalType": "bool",
          "name": "",
          "type": "bool"
        }
      ],
      "stateMutability": "view",
      "type": "function"
    },
    {
      "inputs": [
        {
          "internalType": "address",
          "name": "lockCaller",
          "type": "address"
        },
        {
          "internalType": "bytes",
          "name": "data",
          "type": "bytes"
        }
      ],
      "name": "lockAcquired",
      "outputs": [
        {
          "internalType": "bytes",
          "name": "",
          "type": "bytes"
        }
      ],
      "stateMutability": "nonpayable",
      "type": "function"
    },
    {
      "inputs": [
        {
          "internalType": "bytes32",
          "name": "key",
          "type": "bytes32"
        },
        {
          "internalType": "uint256",
          "name": "amountA",
          "type": "uint256"
        },
        {
          "internalType": "uint256",
          "name": "amountB",
          "type": "uint256"
        },
        {
          "internalType": "uint256",
          "name": "minLpAmount",
          "type": "uint256"
        }
      ],
      "name": "mint",
      "outputs": [
        {
          "internalType": "uint256",
          "name": "mintAmount",
          "type": "uint256"
        }
      ],
      "stateMutability": "payable",
      "type": "function"
    },
    {
      "inputs": [],
      "name": "name",
      "outputs": [
        {
          "internalType": "string",
          "name": "",
          "type": "string"
        }
      ],
      "stateMutability": "view",
      "type": "function"
    },
    {
      "inputs": [
        {
          "components": [
            {
              "internalType": "Currency",
              "name": "base",
              "type": "address"
            },
            {
              "internalType": "uint64",
              "name": "unitSize",
              "type": "uint64"
            },
            {
              "internalType": "Currency",
              "name": "quote",
              "type": "address"
            },
            {
              "internalType": "FeePolicy",
              "name": "makerPolicy",
              "type": "uint24"
            },
            {
              "internalType": "contract IHooks",
              "name": "hooks",
              "type": "address"
            },
            {
              "internalType": "FeePolicy",
              "name": "takerPolicy",
              "type": "uint24"
            }
          ],
          "internalType": "struct IBookManager.BookKey",
          "name": "bookKeyA",
          "type": "tuple"
        },
        {
          "components": [
            {
              "internalType": "Currency",
              "name": "base",
              "type": "address"
            },
            {
              "internalType": "uint64",
              "name": "unitSize",
              "type": "uint64"
            },
            {
              "internalType": "Currency",
              "name": "quote",
              "type": "address"
            },
            {
              "internalType": "FeePolicy",
              "name": "makerPolicy",
              "type": "uint24"
            },
            {
              "internalType": "contract IHooks",
              "name": "hooks",
              "type": "address"
            },
            {
              "internalType": "FeePolicy",
              "name": "takerPolicy",
              "type": "uint24"
            }
          ],
          "internalType": "struct IBookManager.BookKey",
          "name": "bookKeyB",
          "type": "tuple"
        },
        {
          "internalType": "bytes32",
          "name": "salt",
          "type": "bytes32"
        },
        {
          "internalType": "address",
          "name": "strategy",
          "type": "address"
        }
      ],
      "name": "open",
      "outputs": [
        {
          "internalType": "bytes32",
          "name": "",
          "type": "bytes32"
        }
      ],
      "stateMutability": "nonpayable",
      "type": "function"
    },
    {
      "inputs": [],
      "name": "owner",
      "outputs": [
        {
          "internalType": "address",
          "name": "",
          "type": "address"
        }
      ],
      "stateMutability": "view",
      "type": "function"
    },
    {
      "inputs": [],
      "name": "pendingOwner",
      "outputs": [
        {
          "internalType": "address",
          "name": "",
          "type": "address"
        }
      ],
      "stateMutability": "view",
      "type": "function"
    },
    {
      "inputs": [],
      "name": "proxiableUUID",
      "outputs": [
        {
          "internalType": "bytes32",
          "name": "",
          "type": "bytes32"
        }
      ],
      "stateMutability": "view",
      "type": "function"
    },
    {
      "inputs": [
        {
          "internalType": "bytes32",
          "name": "key",
          "type": "bytes32"
        }
      ],
      "name": "rebalance",
      "outputs": [],
      "stateMutability": "nonpayable",
      "type": "function"
    },
    {
      "inputs": [],
      "name": "renounceOwnership",
      "outputs": [],
      "stateMutability": "nonpayable",
      "type": "function"
    },
    {
      "inputs": [
        {
          "internalType": "address",
          "name": "operator",
          "type": "address"
        },
        {
          "internalType": "bool",
          "name": "approved",
          "type": "bool"
        }
      ],
      "name": "setOperator",
      "outputs": [
        {
          "internalType": "bool",
          "name": "",
          "type": "bool"
        }
      ],
      "stateMutability": "nonpayable",
      "type": "function"
    },
    {
      "inputs": [
        {
          "internalType": "bytes4",
          "name": "interfaceId",
          "type": "bytes4"
        }
      ],
      "name": "supportsInterface",
      "outputs": [
        {
          "internalType": "bool",
          "name": "",
          "type": "bool"
        }
      ],
      "stateMutability": "view",
      "type": "function"
    },
    {
      "inputs": [],
      "name": "symbol",
      "outputs": [
        {
          "internalType": "string",
          "name": "",
          "type": "string"
        }
      ],
      "stateMutability": "view",
      "type": "function"
    },
    {
      "inputs": [
        {
          "internalType": "uint256",
          "name": "",
          "type": "uint256"
        }
      ],
      "name": "totalSupply",
      "outputs": [
        {
          "internalType": "uint256",
          "name": "",
          "type": "uint256"
        }
      ],
      "stateMutability": "view",
      "type": "function"
    },
    {
      "inputs": [
        {
          "internalType": "address",
          "name": "receiver",
          "type": "address"
        },
        {
          "internalType": "uint256",
          "name": "id",
          "type": "uint256"
        },
        {
          "internalType": "uint256",
          "name": "amount",
          "type": "uint256"
        }
      ],
      "name": "transfer",
      "outputs": [
        {
          "internalType": "bool",
          "name": "",
          "type": "bool"
        }
      ],
      "stateMutability": "nonpayable",
      "type": "function"
    },
    {
      "inputs": [
        {
          "internalType": "address",
          "name": "sender",
          "type": "address"
        },
        {
          "internalType": "address",
          "name": "receiver",
          "type": "address"
        },
        {
          "internalType": "uint256",
          "name": "id",
          "type": "uint256"
        },
        {
          "internalType": "uint256",
          "name": "amount",
          "type": "uint256"
        }
      ],
      "name": "transferFrom",
      "outputs": [
        {
          "internalType": "bool",
          "name": "",
          "type": "bool"
        }
      ],
      "stateMutability": "nonpayable",
      "type": "function"
    },
    {
      "inputs": [
        {
          "internalType": "address",
          "name": "newOwner",
          "type": "address"
        }
      ],
      "name": "transferOwnership",
      "outputs": [],
      "stateMutability": "nonpayable",
      "type": "function"
    },
    {
      "inputs": [
        {
          "internalType": "address",
          "name": "newImplementation",
          "type": "address"
        },
        {
          "internalType": "bytes",
          "name": "data",
          "type": "bytes"
        }
      ],
      "name": "upgradeToAndCall",
      "outputs": [],
      "stateMutability": "payable",
      "type": "function"
    },
    {
      "stateMutability": "payable",
      "type": "receive"
    }
  ],
  "transactionHash": "0xbd8d242ff7ea2a6e7c29f7598b57c8b72f1f5a616248ac289716da491668147d",
  "args": [
    "0xD4aD5Ed9E1436904624b6dB8B1BE31f36317C636",
    100,
    "Sonic Market Liquidity Vault",
    "SLV"
  ],
  "numDeployments": 1,
  "solcInputHash": "bb08b08c607a06add251fc51587fdadf",
  "bytecode": "0x60e060405230608052348015610013575f80fd5b50604051615481380380615481833981016040819052610032916101c0565b338061005757604051631e4fbdf760e01b81525f600482015260240160405180910390fd5b610060816100b9565b50620f4240831061008457604051636a43f8d160e01b815260040160405180910390fd5b6001600160a01b03841660a05260c083905260096100a283826102ca565b50600a6100af82826102ca565b5050505050610389565b600180546001600160a01b03191690556100d2816100d5565b50565b5f80546001600160a01b038381166001600160a01b0319831681178455604051919092169283917f8be0079c531659141344cd1fd0a4f28419497f9722a3daafe3b4186f6b6457e09190a35050565b634e487b7160e01b5f52604160045260245ffd5b5f82601f830112610147575f80fd5b81516001600160401b038082111561016157610161610124565b604051601f8301601f19908116603f0116810190828211818310171561018957610189610124565b816040528381528660208588010111156101a1575f80fd5b8360208701602083015e5f602085830101528094505050505092915050565b5f805f80608085870312156101d3575f80fd5b84516001600160a01b03811681146101e9575f80fd5b6020860151604087015191955093506001600160401b038082111561020c575f80fd5b61021888838901610138565b9350606087015191508082111561022d575f80fd5b5061023a87828801610138565b91505092959194509250565b600181811c9082168061025a57607f821691505b60208210810361027857634e487b7160e01b5f52602260045260245ffd5b50919050565b601f8211156102c557805f5260205f20601f840160051c810160208510156102a35750805b601f840160051c820191505b818110156102c2575f81556001016102af565b50505b505050565b81516001600160401b038111156102e3576102e3610124565b6102f7816102f18454610246565b8461027e565b602080601f83116001811461032a575f84156103135750858301515b5f19600386901b1c1916600185901b178555610381565b5f85815260208120601f198616915b8281101561035857888601518255948401946001909101908401610339565b508582101561037557878501515f19600388901b60f8161c191681555b505060018460011b0185555b505050505050565b60805160a05160c05161500a6104775f395f81816104b801528181612095015261214301525f81816104090152818161093a015281816109d401528181610dae01528181611363015281816114430152818161159601528181611a4301528181611acf01528181611b5001528181611bdc01528181611f1f01528181612347015281816126c9015281816127df01528181612b0501528181612bb201528181612c6c01528181612ce301528181612d3b01528181612e03015281816134bc0152818161369401528181613774015261380901525f81816131b9015281816131e20152613365015261500a5ff3fe608060405260043610610279575f3560e01c806379ba50971161014b578063c4d66de8116100c6578063f3cbc88c1161007c578063fa6793d511610062578063fa6793d5146107fc578063faaebd2114610829578063fe99049a14610854575f80fd5b8063f3cbc88c146107b1578063f6c00927146107d0575f80fd5b8063e27ff0ad116100ac578063e27ff0ad14610756578063e30c397814610775578063f2fde38b14610792575f80fd5b8063c4d66de8146106d7578063c630ed7d146106f6575f80fd5b8063a12ef25e1161011b578063ad3cb1cc11610101578063ad3cb1cc1461062b578063b6363cf214610673578063bd85b039146106ac575f80fd5b8063a12ef25e146105ed578063a1d5f1311461060c575f80fd5b806379ba50971461055d5780638da5cb5b1461057157806395d89b411461058d578063998ff4ef146105a1575f80fd5b80632b3ba681116101f5578063509bf42a116101ab578063558a729711610191578063558a7297146104ee578063598af9e71461050d578063715018a614610549575f80fd5b8063509bf42a146104a757806352d1902d146104da575f80fd5b80633f47e662116101db5780633f47e66214610443578063426a8493146104755780634f1ef28614610494575f80fd5b80632b3ba681146103e25780633f322bc9146103f8575f80fd5b8063095bcdb61161024a5780630a31b953116102305780630a31b9531461037057806315c7afb4146103a45780631b022ec8146103c3575f80fd5b8063095bcdb61461033e57806309cb66c41461035d575f80fd5b8062fdd58e1461028457806301ffc9a7146102cd578063022dd4ef146102fc57806306fdde031461031d575f80fd5b3661028057005b5f80fd5b34801561028f575f80fd5b506102ba61029e366004614164565b600360209081525f928352604080842090915290825290205481565b6040519081526020015b60405180910390f35b3480156102d8575f80fd5b506102ec6102e736600461418e565b610873565b60405190151581526020016102c4565b348015610307575f80fd5b5061031b6103163660046141b5565b6108db565b005b348015610328575f80fd5b50610331610c2f565b6040516102c491906141fa565b348015610349575f80fd5b506102ec61035836600461420c565b610cbb565b6102ba61036b36600461423e565b610d75565b34801561037b575f80fd5b5061038f61038a36600461423e565b6112d5565b604080519283526020830191909152016102c4565b3480156103af575f80fd5b506103316103be36600461426d565b611436565b3480156103ce575f80fd5b5061031b6103dd3660046141b5565b61158c565b3480156103ed575f80fd5b506102ba620f424081565b348015610403575f80fd5b5061042b7f000000000000000000000000000000000000000000000000000000000000000081565b6040516001600160a01b0390911681526020016102c4565b34801561044e575f80fd5b5061046361045d3660046141b5565b50601290565b60405160ff90911681526020016102c4565b348015610480575f80fd5b506102ec61048f36600461420c565b611670565b61031b6104a23660046143a3565b6116d4565b3480156104b2575f80fd5b506102ba7f000000000000000000000000000000000000000000000000000000000000000081565b3480156104e5575f80fd5b506102ba6116f3565b3480156104f9575f80fd5b506102ec61050836600461443d565b611721565b348015610518575f80fd5b506102ba610527366004614474565b600460209081525f938452604080852082529284528284209052825290205481565b348015610554575f80fd5b5061031b611790565b348015610568575f80fd5b5061031b6117a3565b34801561057c575f80fd5b505f546001600160a01b031661042b565b348015610598575f80fd5b506103316117e9565b3480156105ac575f80fd5b506105d56105bb3660046144b2565b60076020525f90815260409020546001600160c01b031681565b6040516001600160c01b0390911681526020016102c4565b3480156105f8575f80fd5b5061031b6106073660046144d8565b6117f6565b348015610617575f80fd5b506102ba61062636600461451a565b611878565b348015610636575f80fd5b506103316040518060400160405280600581526020017f352e302e3000000000000000000000000000000000000000000000000000000081525081565b34801561067e575f80fd5b506102ec61068d3660046144d8565b600260209081525f928352604080842090915290825290205460ff1681565b3480156106b7575f80fd5b506102ba6106c63660046141b5565b60056020525f908152604090205481565b3480156106e2575f80fd5b5061031b6106f136600461456b565b611d7c565b348015610701575f80fd5b506107366107103660046141b5565b5f90815260066020526040902080546001909101546001600160c01b0391821692911690565b604080516001600160c01b039384168152929091166020830152016102c4565b348015610761575f80fd5b5061038f610770366004614586565b611eb6565b348015610780575f80fd5b506001546001600160a01b031661042b565b34801561079d575f80fd5b5061031b6107ac36600461456b565b6122cc565b3480156107bc575f80fd5b506102ba6107cb36600461451a565b61233c565b3480156107db575f80fd5b506107ef6107ea3660046141b5565b612439565b6040516102c491906145e4565b348015610807575f80fd5b5061081b6108163660046141b5565b61259a565b6040516102c4929190614665565b348015610834575f80fd5b506102ba61084336600461456b565b60086020525f908152604090205481565b34801561085f575f80fd5b506102ec61086e36600461469e565b6128c3565b5f7f01ffc9a7000000000000000000000000000000000000000000000000000000006001600160e01b0319831614806108d557507f0f632fb3000000000000000000000000000000000000000000000000000000006001600160e01b03198316145b92915050565b3330146108fb576040516314e1dbf760e11b815260040160405180910390fd5b5f81815260066020526040808220600381015460048083015483549451639b22917d60e01b81526001600160c01b0390951691850191909152919390927f00000000000000000000000000000000000000000000000000000000000000006001600160a01b031690639b22917d9060240160c060405180830381865afa158015610987573d5f803e3d5ffd5b505050506040513d601f19601f820116820180604052508101906109ab9190614706565b6001850154604051639b22917d60e01b81526001600160c01b0390911660048201529091505f907f00000000000000000000000000000000000000000000000000000000000000006001600160a01b031690639b22917d9060240160c060405180830381865afa158015610a21573d5f803e3d5ffd5b505050506040513d601f19601f82011682018060405250810190610a459190614706565b60028601546040517f3b93fabc000000000000000000000000000000000000000000000000000000008152600481018990529192506001600160a01b031690633b93fabc906024015f60405180830381865afa925050508015610ac957506040513d5f823e601f3d908101601f19168201604052610ac69190810190614847565b60015b610b0357610ada8686600180612a34565b610ae8826040015185612ae4565b60038601558151610af99084612ae4565b6004860155610c26565b8151158015610b1157508051155b15610b20575050505050505050565b610b2d8888600180612a34565b5f610b3c85848a600501612dc4565b90505f610b4d85848b600601612dc4565b9050610b5d866040015189612ae4565b60038a01558551610b6e9088612ae4565b6004808b019190915560028a01546040517f4424d7f50000000000000000000000000000000000000000000000000000000081526001600160a01b0390911691634424d7f591610bca9133918f918a918a918a918a91016148ee565b5f604051808303815f87803b158015610be1575f80fd5b505af1158015610bf3573d5f803e3d5ffd5b50506040518c92507f37f8042257f6b4d65b9614deb7792e5b374db2fdcd1983bf8a1247a8a788af5c91505f90a2505050505b50505050505b50565b60098054610c3c9061493d565b80601f0160208091040260200160405190810160405280929190818152602001828054610c689061493d565b8015610cb35780601f10610c8a57610100808354040283529160200191610cb3565b820191905f5260205f20905b815481529060010190602001808311610c9657829003601f168201915b505050505081565b335f908152600360209081526040808320858452909152812080548391908390610ce6908490614983565b90915550506001600160a01b0384165f90815260036020908152604080832086845290915281208054849290610d1d908490614996565b909155505060408051338082526020820185905285926001600160a01b038816927f1b3d7edb2e9c0b0e7c525b20aaaef0f5940d2ed71663c7d39266ecafac72885991015b60405180910390a45060015b9392505050565b5f610d7e612f33565b5f8581526006602052604080822080549151639b22917d60e01b81526001600160c01b03909216600483015291907f00000000000000000000000000000000000000000000000000000000000000006001600160a01b031690639b22917d9060240160c060405180830381865afa158015610dfb573d5f803e3d5ffd5b505050506040513d601f19601f82011682018060405250810190610e1f9190614706565b5f88815260056020526040812054919250819003610fdc57861580610e42575085155b15610e79576040517f2c5211c600000000000000000000000000000000000000000000000000000000815260040160405180910390fd5b60408201515f906001600160a01b031615610f0d5782604001516001600160a01b031663313ce5676040518163ffffffff1660e01b8152600401602060405180830381865afa158015610ece573d5f803e3d5ffd5b505050506040513d601f19601f82011682018060405250810190610ef291906149a9565b610efd9060126149c9565b610f0890600a614ac2565b610f10565b60015b83519091505f906001600160a01b031615610fa357835f01516001600160a01b031663313ce5676040518163ffffffff1660e01b8152600401602060405180830381865afa158015610f64573d5f803e3d5ffd5b505050506040513d601f19601f82011682018060405250810190610f8891906149a9565b610f939060126149c9565b610f9e90600a614ac2565b610fa6565b60015b90505f610fb3838b614ad0565b90505f610fc0838b614ad0565b9050808211610fcf5780610fd1565b815b9750505050506110de565b5f80610fe78a61259a565b915091505f82604001518360200151845f01516110049190614996565b61100e9190614996565b90505f82604001518360200151845f01516110299190614996565b6110339190614996565b905081158015611041575080155b15611054575f9950899a508a97506110d9565b815f03611070576110668a8683612fb9565b97505f9a506110d9565b805f0361108c576110828b8684612fb9565b97505f99506110d9565b5f6110988c8785612fb9565b90505f6110a68c8885612fb9565b9050808211156110c5578099506110be848b89612fd4565b9c506110d6565b8199506110d3838b89612fd4565b9b505b50505b505050505b848410156110ff576040516307dd37f760e41b815260040160405180910390fd5b604082015134906001600160a01b031661113c578734101561113457604051632a9ffab760e21b815260040160405180910390fd5b879003611156565b6040830151611156906001600160a01b031633308b612ff7565b82516001600160a01b031661118e578634101561118657604051632a9ffab760e21b815260040160405180910390fd5b8690036111a5565b82516111a5906001600160a01b031633308a612ff7565b87846003015f8282546111b89190614996565b9250508190555086846004015f8282546111d29190614996565b909155506111e39050338a87613070565b80156111f4576111f45f33836130a2565b6040805189815260208101899052908101869052899033907f1d43dbd7e59f8c9371169f5c49c01e100227d9ee5f5fe54665cf10e35042bb729060600160405180910390a360028401546040517fa3a36f55000000000000000000000000000000000000000000000000000000008152336004820152602481018b905260448101879052606481018490526001600160a01b039091169063a3a36f55906084015f604051808303815f87803b1580156112ab575f80fd5b505af11580156112bd573d5f803e3d5ffd5b50505050505050506112cd613184565b949350505050565b5f806112df612f33565b6040805160248101889052336044820152606480820188905282518083039091018152608490910182526020810180516001600160e01b03167fe27ff0ad0000000000000000000000000000000000000000000000000000000017905290517f9ca179980000000000000000000000000000000000000000000000000000000081527f00000000000000000000000000000000000000000000000000000000000000006001600160a01b031691639ca17998916113a0913091600401614ae7565b5f604051808303815f875af11580156113bb573d5f803e3d5ffd5b505050506040513d5f823e601f3d908101601f191682016040526113e29190810190614b08565b8060200190518101906113f59190614b7d565b90925090508382108061140757508281105b15611425576040516307dd37f760e41b815260040160405180910390fd5b61142d613184565b94509492505050565b6060336001600160a01b037f0000000000000000000000000000000000000000000000000000000000000000161461149a576040517f4bd37f4300000000000000000000000000000000000000000000000000000000815260040160405180910390fd5b6001600160a01b03841630146114dc576040517f66a7598c00000000000000000000000000000000000000000000000000000000815260040160405180910390fd5b5f80306001600160a01b031685856040516114f8929190614b9f565b5f604051808303815f865af19150503d805f8114611531576040519150601f19603f3d011682016040523d82523d5f602084013e611536565b606091505b5091509150811561154a579150610d6e9050565b80515f03611584576040517fa40afa3800000000000000000000000000000000000000000000000000000000815260040160405180910390fd5b805160208201fd5b611594612f33565b7f00000000000000000000000000000000000000000000000000000000000000006001600160a01b0316639ca179983063022dd4ef60e01b846040516024016115df91815260200190565b60408051601f198184030181529181526020820180516001600160e01b03166001600160e01b03199485161790525160e085901b90921682526116259291600401614ae7565b5f604051808303815f875af1158015611640573d5f803e3d5ffd5b505050506040513d5f823e601f3d908101601f191682016040526116679190810190614b08565b50610c2c613184565b335f8181526004602090815260408083206001600160a01b03881680855290835281842087855290925280832085905551919285927fb3fd5071835887567a0671151121894ddccc2842f1d10bedad13e0d17cace9a790610d629087815260200190565b6116dc6131ae565b6116e582613265565b6116ef828261326d565b5050565b5f6116fc61335a565b507f360894a13ba1a3210667c828492db98dca3e2076cc3735a920a3ca505d382bbc90565b335f8181526002602090815260408083206001600160a01b038716808552908352818420805460ff191687151590811790915591519182529293917fceb576d9f15e4e200fdb5096d64d5dfd667e16def20c1eefd14256d8e3faa267910160405180910390a350600192915050565b6117986133a3565b6117a15f6133cf565b565b60015433906001600160a01b031681146117e05760405163118cdaa760e01b81526001600160a01b03821660048201526024015b60405180910390fd5b610c2c816133cf565b600a8054610c3c9061493d565b6117fe6133a3565b6001600160a01b0382165f8181526008602052604081208054919055906118269083836130a2565b816001600160a01b0316836001600160a01b03167f1314fd112a381beea61539dbd21ec04afcff2662ac7d1b83273aade1f53d1b978360405161186b91815260200190565b60405180910390a3505050565b5f333014611899576040516314e1dbf760e11b815260040160405180910390fd5b6118ca6118a9602086018661456b565b6118b9606088016040890161456b565b6001600160a01b0391821691161490565b80156118f157506118f16118e4606086016040870161456b565b6118b9602088018861456b565b158061190857506119086118a9602087018761456b565b1561193f576040517f27a4015200000000000000000000000000000000000000000000000000000000815260040160405180910390fd5b5f61195060a087016080880161456b565b6001600160a01b031614158061197e57505f61197260a086016080870161456b565b6001600160a01b031614155b156119b5576040517f9c9d882300000000000000000000000000000000000000000000000000000000815260040160405180910390fd5b6001600160a01b0382166119f5576040517f4e236e9a00000000000000000000000000000000000000000000000000000000815260040160405180910390fd5b5f611a0d611a0836889003880188614bae565b6133e8565b90505f611a22611a0836889003880188614bae565b604051632ad7b51960e11b81526001600160c01b03841660048201529091507f00000000000000000000000000000000000000000000000000000000000000006001600160a01b0316906355af6a3290602401602060405180830381865afa158015611a90573d5f803e3d5ffd5b505050506040513d601f19601f82011682018060405250810190611ab49190614c2d565b611b325760405163fefc7c5160e01b81526001600160a01b037f0000000000000000000000000000000000000000000000000000000000000000169063fefc7c5190611b04908a90600401614ce7565b5f604051808303815f87803b158015611b1b575f80fd5b505af1158015611b2d573d5f803e3d5ffd5b505050505b604051632ad7b51960e11b81526001600160c01b03821660048201527f00000000000000000000000000000000000000000000000000000000000000006001600160a01b0316906355af6a3290602401602060405180830381865afa158015611b9d573d5f803e3d5ffd5b505050506040513d601f19601f82011682018060405250810190611bc19190614c2d565b611c3f5760405163fefc7c5160e01b81526001600160a01b037f0000000000000000000000000000000000000000000000000000000000000000169063fefc7c5190611c11908990600401614ce7565b5f604051808303815f87803b158015611c28575f80fd5b505af1158015611c3a573d5f803e3d5ffd5b505050505b611c4a828287613423565b5f818152600660205260409020600201549093506001600160a01b031615611c9e576040517f1da42b2600000000000000000000000000000000000000000000000000000000815260040160405180910390fd5b5f83815260066020908152604080832080546001600160c01b038781167fffffffffffffffff0000000000000000000000000000000000000000000000009283168117845560018401805492891692841683179055600290930180546001600160a01b038c166001600160a01b03199091168117909155838752600786528487208054841683179055818752958490208054909216831790915582518a8152938401949094529186917f66d8f0c63665a9bd1357e5d422d5f538805b225f260974cb408a66635040ec6c910160405180910390a45050949350505050565b7ff0c57e16840df040f15088dc2f81fe391c3923bec73e23a9662efc9c229c6a00805468010000000000000000810460ff16159067ffffffffffffffff165f81158015611dc65750825b90505f8267ffffffffffffffff166001148015611de25750303b155b905081158015611df0575080155b15611e27576040517ff92ee8a900000000000000000000000000000000000000000000000000000000815260040160405180910390fd5b845467ffffffffffffffff191660011785558315611e5b57845468ff00000000000000001916680100000000000000001785555b611e64866133cf565b8315610c2657845468ff000000000000000019168555604051600181527fc7f505b2f371ae2175ee4913f4499e1f2633a7b5936321eed1cdaeb6115181d29060200160405180910390a1505050505050565b5f80333014611ed8576040516314e1dbf760e11b815260040160405180910390fd5b5f858152600660209081526040808320600590925290912054611efc86888761348f565b8154604051639b22917d60e01b81526001600160c01b0390911660048201525f907f00000000000000000000000000000000000000000000000000000000000000006001600160a01b031690639b22917d9060240160c060405180830381865afa158015611f6c573d5f803e3d5ffd5b505050506040513d601f19601f82011682018060405250810190611f909190614706565b9050611f9e88848885612a34565b611fb081604001518460030154612ae4565b600384015580516004840154611fc69190612ae4565b60048401555f80611fd68a61259a565b91509150838883604001518460200151855f0151611ff49190614996565b611ffe9190614996565b6120089190614ad0565b6120129190614d08565b9650838882604001518360200151845f015161202e9190614996565b6120389190614996565b6120429190614ad0565b61204c9190614d08565b955086856003015f8282546120619190614983565b9250508190555085856004015f82825461207b9190614983565b909155505f905080881561213157620f42406001816120ba7f00000000000000000000000000000000000000000000000000000000000000008d614ad0565b6120c49190614996565b6120ce9190614983565b6120d89190614d08565b91506120e4828a614983565b6040860151909950612100906001600160a01b03168c8b6130a2565b6040808601516001600160a01b03165f9081526008602052908120805484929061212b908490614996565b90915550505b87156121d957620f42406001816121687f00000000000000000000000000000000000000000000000000000000000000008c614ad0565b6121729190614996565b61217c9190614983565b6121869190614d08565b90506121928189614983565b85519098506121ab906001600160a01b03168c8a6130a2565b84516001600160a01b03165f90815260086020526040812080548392906121d3908490614996565b90915550505b604080518b8152602081018b905290810189905260608101839052608081018290528c906001600160a01b038d16907f7825ad5cf3aafe81da61bbb75737444e6d77278cb110bb9bfa3ee809f1fb64b99060a00160405180910390a360028701546040517fdb7c74b6000000000000000000000000000000000000000000000000000000008152336004820152602481018e9052604481018c9052606481018890526001600160a01b039091169063db7c74b6906084015f604051808303815f87803b1580156122a7575f80fd5b505af11580156122b9573d5f803e3d5ffd5b5050505050505050505050935093915050565b6122d46133a3565b600180546001600160a01b0383166001600160a01b031990911681179091556123045f546001600160a01b031690565b6001600160a01b03167f38d16b8cac22d99fc7c124b9cd0de2d3fa1faef420bfe791d8c362d765e2270060405160405180910390a350565b5f612345612f33565b7f00000000000000000000000000000000000000000000000000000000000000006001600160a01b0316639ca179983063a1d5f13160e01b888888886040516024016123949493929190614d27565b60408051601f198184030181529181526020820180516001600160e01b03166001600160e01b03199485161790525160e085901b90921682526123da9291600401614ae7565b5f604051808303815f875af11580156123f5573d5f803e3d5ffd5b505050506040513d5f823e601f3d908101601f1916820160405261241c9190810190614b08565b80602001905181019061242f9190614d63565b90506112cd613184565b61248f6040518060e001604052805f6001600160c01b031681526020015f6001600160c01b031681526020015f6001600160a01b031681526020015f81526020015f815260200160608152602001606081525090565b5f82815260066020908152604091829020825160e08101845281546001600160c01b0390811682526001830154168184015260028201546001600160a01b03168185015260038201546060820152600482015460808201526005820180548551818602810186019096528086529194929360a0860193929083018282801561253457602002820191905f5260205f20905b815481526020019060010190808311612520575b505050505081526020016006820180548060200260200160405190810160405280929190818152602001828054801561258a57602002820191905f5260205f20905b815481526020019060010190808311612576575b5050505050815250509050919050565b6125bb60405180606001604052805f81526020015f81526020015f81525090565b6125dc60405180606001604052805f81526020015f81526020015f81525090565b5f838152600660209081526040808320600381015486526004810154855260058101805483518186028101860190945280845291949390919083018282801561264257602002820191905f5260205f20905b81548152602001906001019080831161262e575b505050505090505f8260060180548060200260200160405190810160405280929190818152602001828054801561269657602002820191905f5260205f20905b815481526020019060010190808311612682575b505050505090505f825111156127b2578254604051639b22917d60e01b81526001600160c01b0390911660048201525f907f00000000000000000000000000000000000000000000000000000000000000006001600160a01b031690639b22917d9060240160c060405180830381865afa158015612716573d5f803e3d5ffd5b505050506040513d601f19601f8201168201806040525081019061273a9190614706565b90505f5b83518110156127af575f806127758460600151856020015188868151811061276857612768614d7a565b60200260200101516134b7565b91509150818960400181815161278b9190614996565b9052506020880180518291906127a2908390614996565b905250505060010161273e565b50505b8051156128bb576001830154604051639b22917d60e01b81526001600160c01b0390911660048201525f907f00000000000000000000000000000000000000000000000000000000000000006001600160a01b031690639b22917d9060240160c060405180830381865afa15801561282c573d5f803e3d5ffd5b505050506040513d601f19601f820116820180604052508101906128509190614706565b90505f5b82518110156128b8575f8061287e8460600151856020015187868151811061276857612768614d7a565b9150915080896020018181516128949190614996565b9052506040880180518391906128ab908390614996565b9052505050600101612854565b50505b505050915091565b5f336001600160a01b0386161480159061290057506001600160a01b0385165f90815260026020908152604080832033845290915290205460ff16155b15612970576001600160a01b0385165f90815260046020908152604080832033845282528083208684529091529020545f19811461296e576129428382614983565b6001600160a01b0387165f90815260046020908152604080832033845282528083208884529091529020555b505b6001600160a01b0385165f908152600360209081526040808320868452909152812080548492906129a2908490614983565b90915550506001600160a01b0384165f908152600360209081526040808320868452909152812080548492906129d9908490614996565b9091555050604080513381526020810184905284916001600160a01b0380881692908916917f1b3d7edb2e9c0b0e7c525b20aaaef0f5940d2ed71663c7d39266ecafac728859910160405180910390a4506001949350505050565b5f80612a44856005018585613616565b915091505f80612a58876006018787613616565b91509150877f1c29b938e5c165e4f17dcbaf854af84a6c529c3f0face137b12bda74606cca9e8285604051612a97929190918252602082015260400190565b60405180910390a2604080518581526020810184905289917f5721685080049ebad55f69ed0f4bf84a11d57cd2050e67986deab2323a9b2103910160405180910390a25050505050505050565b604051636a256b2960e01b81526001600160a01b0383811660048301525f917f000000000000000000000000000000000000000000000000000000000000000090911690636a256b29906024016020604051808303815f875af1158015612b4d573d5f803e3d5ffd5b505050506040513d601f19601f82011682018060405250810190612b719190614d63565b506040517f9611cf6c0000000000000000000000000000000000000000000000000000000081523060048201526001600160a01b0384811660248301525f917f000000000000000000000000000000000000000000000000000000000000000090911690639611cf6c90604401602060405180830381865afa158015612bf9573d5f803e3d5ffd5b505050506040513d601f19601f82011682018060405250810190612c1d9190614d63565b90505f811315612cd6576040517fd9caed120000000000000000000000000000000000000000000000000000000081526001600160a01b038581166004830152306024830152604482018390527f0000000000000000000000000000000000000000000000000000000000000000169063d9caed12906064015f604051808303815f87803b158015612cad575f80fd5b505af1158015612cbf573d5f803e3d5ffd5b505050508083612ccf9190614996565b9250612dbc565b5f811215612dbc57612d1c7f0000000000000000000000000000000000000000000000000000000000000000612d0b83614d8e565b6001600160a01b03871691906130a2565b604051636a256b2960e01b81526001600160a01b0385811660048301527f00000000000000000000000000000000000000000000000000000000000000001690636a256b29906024016020604051808303815f875af1158015612d81573d5f803e3d5ffd5b505050506040513d601f19601f82011682018060405250810190612da59190614d63565b50612daf81614d8e565b612db99084614983565b92505b509092915050565b5f805b8351811015612f2b57838181518110612de257612de2614d7a565b60200260200101516020015167ffffffffffffffff165f0315612f23575f807f00000000000000000000000000000000000000000000000000000000000000006001600160a01b0316631dbef48860405180608001604052808a8152602001898781518110612e5357612e53614d7a565b60200260200101515f015160020b8152602001898781518110612e7857612e78614d7a565b60200260200101516020015167ffffffffffffffff1681526020015f6001600160a01b03168152506040518263ffffffff1660e01b8152600401612ebc9190614dc4565b60408051808303815f875af1158015612ed7573d5f803e3d5ffd5b505050506040513d601f19601f82011682018060405250810190612efb9190614b7d565b9092509050612f0a8185614996565b85546001810187555f8781526020902001929092555091505b600101612dc7565b509392505050565b7f9b779b17422d0df92223018b32b4d1fa46e071723d6817e2486d003becc55f005c15612f8c576040517f3ee5aeb500000000000000000000000000000000000000000000000000000000815260040160405180910390fd5b6117a160017f9b779b17422d0df92223018b32b4d1fa46e071723d6817e2486d003becc55f005b9061392f565b5f825f190484118302158202612fcd575f80fd5b5091020490565b5f825f190484118302158202612fe8575f80fd5b50910281810615159190040190565b604080516001600160a01b0385811660248301528416604482015260648082018490528251808303909101815260849091019091526020810180516001600160e01b03167f23b872dd0000000000000000000000000000000000000000000000000000000017905261306a908590613936565b50505050565b61307b8383836139bb565b5f8281526005602052604081208054839290613098908490614996565b9091555050505050565b5f6001600160a01b0384166130f7575f805f8085875af19050806130f2576040517ff4b3b1bc00000000000000000000000000000000000000000000000000000000815260040160405180910390fd5b61306a565b6040517fa9059cbb0000000000000000000000000000000000000000000000000000000081526001600160a01b038416600482015282602482015260205f6044835f895af13d15601f3d1160015f51141617169150508061306a576040517ff27f64e400000000000000000000000000000000000000000000000000000000815260040160405180910390fd5b6117a15f7f9b779b17422d0df92223018b32b4d1fa46e071723d6817e2486d003becc55f00612fb3565b306001600160a01b037f000000000000000000000000000000000000000000000000000000000000000016148061324757507f00000000000000000000000000000000000000000000000000000000000000006001600160a01b031661323b7f360894a13ba1a3210667c828492db98dca3e2076cc3735a920a3ca505d382bbc546001600160a01b031690565b6001600160a01b031614155b156117a15760405163703e46dd60e11b815260040160405180910390fd5b610c2c6133a3565b816001600160a01b03166352d1902d6040518163ffffffff1660e01b8152600401602060405180830381865afa9250505080156132c7575060408051601f3d908101601f191682019092526132c491810190614d63565b60015b6132ef57604051634c9c8ce360e01b81526001600160a01b03831660048201526024016117d7565b7f360894a13ba1a3210667c828492db98dca3e2076cc3735a920a3ca505d382bbc811461334b576040517faa1d49a4000000000000000000000000000000000000000000000000000000008152600481018290526024016117d7565b6133558383613a40565b505050565b306001600160a01b037f000000000000000000000000000000000000000000000000000000000000000016146117a15760405163703e46dd60e11b815260040160405180910390fd5b5f546001600160a01b031633146117a15760405163118cdaa760e01b81523360048201526024016117d7565b600180546001600160a01b0319169055610c2c81613a95565b5f80826040516020016133fb9190614e7a565b60408051601f1981840301815291905280516020909101206001600160c01b03169392505050565b5f826001600160c01b0316846001600160c01b03161115613442579192915b6040805167ffffffffffffffff1986831b811660208301529185901b9091166038820152605081018390526070016040516020818303038152906040528051906020012090509392505050565b61349a838383613ae4565b5f8281526005602052604081208054839290613098908490614983565b5f805f7f00000000000000000000000000000000000000000000000000000000000000006001600160a01b031663d09ef241856040518263ffffffff1660e01b815260040161350891815260200190565b606060405180830381865afa158015613523573d5f803e3d5ffd5b505050506040513d601f19601f820116820180604052508101906135479190614ee1565b90508467ffffffffffffffff16816020015167ffffffffffffffff1661356d9190614ad0565b92506135b08567ffffffffffffffff16826040015167ffffffffffffffff166135969190614ad0565b5f6135a68760281c62ffffff1690565b60020b9190613b60565b91506135c18662ffffff1660171c90565b156135ec575f6135d862ffffff8816856001613b82565b90506135e48185614f51565b93505061360d565b5f6135fd62ffffff88168483613b82565b90506136098184614f78565b9250505b50935093915050565b5f805f8580548060200260200160405190810160405280929190818152602001828054801561366257602002820191905f5260205f20905b81548152602001906001019080831161364e575b505050505090505f5b815181101561391c575f82828151811061368757613687614d7a565b602002602001015190505f7f00000000000000000000000000000000000000000000000000000000000000006001600160a01b031663d09ef241836040518263ffffffff1660e01b81526004016136e091815260200190565b606060405180830381865afa1580156136fb573d5f803e3d5ffd5b505050506040513d601f19601f8201168201806040525081019061371f9190614ee1565b604081015190915067ffffffffffffffff16156137f357604080517f38926b6d0000000000000000000000000000000000000000000000000000000081526004810184905260248101919091525f60448201527f00000000000000000000000000000000000000000000000000000000000000006001600160a01b0316906338926b6d906064016020604051808303815f875af11580156137c2573d5f803e3d5ffd5b505050506040513d601f19601f820116820180604052508101906137e69190614d63565b6137f09086614996565b94505b602081015167ffffffffffffffff1615613912577f00000000000000000000000000000000000000000000000000000000000000006001600160a01b03166314d6a9eb604051806040016040528085815260200161387f8b8d8d6138579190614983565b876020015167ffffffffffffffff166138709190614ad0565b61387a9190614d08565b613c02565b67ffffffffffffffff9081169091526040516001600160e01b031960e085901b16815282516004820152602090920151166024820152606060448201525f60648201526084016020604051808303815f875af11580156138e1573d5f803e3d5ffd5b505050506040513d601f19601f820116820180604052508101906139059190614d63565b61390f9087614996565b95505b505060010161366b565b5084840361360d57505f90945593915050565b80825d5050565b5f8060205f8451602086015f885af180613955576040513d5f823e3d81fd5b50505f513d9150811561396c578060011415613979565b6001600160a01b0384163b155b1561306a576040517f5274afe70000000000000000000000000000000000000000000000000000000081526001600160a01b03851660048201526024016117d7565b6001600160a01b0383165f908152600360209081526040808320858452909152812080548392906139ed908490614996565b9091555050604080513381526020810183905283916001600160a01b038616915f917f1b3d7edb2e9c0b0e7c525b20aaaef0f5940d2ed71663c7d39266ecafac72885991015b60405180910390a4505050565b613a4982613c55565b6040516001600160a01b038316907fbc7cd75a20ee27fd9adebab32041f755214dbc6bffa90cc0225b39da2e5c2d3b905f90a2805115613a8d576133558282613ccb565b6116ef613d3d565b5f80546001600160a01b038381166001600160a01b0319831681178455604051919092169283917f8be0079c531659141344cd1fd0a4f28419497f9722a3daafe3b4186f6b6457e09190a35050565b6001600160a01b0383165f90815260036020908152604080832085845290915281208054839290613b16908490614983565b9091555050604080513381526020810183905283915f916001600160a01b038716917f1b3d7edb2e9c0b0e7c525b20aaaef0f5940d2ed71663c7d39266ecafac7288599101613a33565b5f6112cd606084901b613b758660020b613d75565b8082061515851691040190565b5f6207a11f19627fffff851601600281900b82128281613ba457825f03613ba6565b825b62ffffff1690505f613bdf613bbb8389614ad0565b620f424088613bd1578581830615151691040190565b808206151586151691040190565b905082613bf457613bef81614d8e565b613bf6565b805b98975050505050505050565b5f67ffffffffffffffff821115613c5157604080517f6dfcc6500000000000000000000000000000000000000000000000000000000081526004810191909152602481018390526044016117d7565b5090565b806001600160a01b03163b5f03613c8a57604051634c9c8ce360e01b81526001600160a01b03821660048201526024016117d7565b7f360894a13ba1a3210667c828492db98dca3e2076cc3735a920a3ca505d382bbc80546001600160a01b0319166001600160a01b0392909216919091179055565b60605f80846001600160a01b031684604051613ce79190614f9e565b5f60405180830381855af49150503d805f8114613d1f576040519150601f19603f3d011682016040523d82523d5f602084013e613d24565b606091505b5091509150613d3485838361403d565b95945050505050565b34156117a1576040517fb398979f00000000000000000000000000000000000000000000000000000000815260040160405180910390fd5b5f613d7f826140b2565b815f600282900b8113613d925781613d9b565b613d9b82614fb4565b62ffffff8116915060011615613dbf576bfff97272373d413259a469909250613dd0565b6c0100000000000000000000000092505b6002811615613def5760606bfff2e50f5f656932ef12357c8402901c92505b6004811615613e0e5760606bffe5caca7e10e4e61c3624ea8402901c92505b6008811615613e2d5760606bffcb9843d60f6159c9db58838402901c92505b6010811615613e4c5760606bff973b41fa98c081472e68968402901c92505b6020811615613e6b5760606bff2ea16466c96a3843ec78b38402901c92505b6040811615613e8a5760606bfe5dee046a99a2a811c461f18402901c92505b6080811615613ea95760606bfcbe86c7900a88aedcffc83b8402901c92505b610100811615613ec95760606bf987a7253ac413176f2b074c8402901c92505b610200811615613ee95760606bf3392b0822b70005940c7a398402901c92505b610400811615613f095760606be7159475a2c29b7443b29c7f8402901c92505b610800811615613f295760606bd097f3bdfd2022b8845ad8f78402901c92505b611000811615613f495760606ba9f746462d870fdf8a65dc1f8402901c92505b612000811615613f695760606b70d869a156d2a1b890bb3df68402901c92505b614000811615613f895760606b31be135f97d08fd9812315058402901c92505b618000811615613fa95760606b09aa508b5b7a84e1c677de548402901c92505b62010000811615613fc95760606a5d6af8dedb81196699c3298402901c92505b62020000811615613fe8576060692216e584f5fa1ea926048402901c92505b6204000081161561400557606067048a170391f7dc428402901c92505b5f8260020b131561403657614033837801000000000000000000000000000000000000000000000000614d08565b92505b5050919050565b6060826140525761404d8261410e565b610d6e565b815115801561406957506001600160a01b0384163b155b156140ab576040517f9996b3150000000000000000000000000000000000000000000000000000000081526001600160a01b03851660048201526024016117d7565b5080610d6e565b6207ffff600282900b13806140d757506140ce6207ffff614fb4565b60020b8160020b125b15610c2c576040517fce8ef7fc00000000000000000000000000000000000000000000000000000000815260040160405180910390fd5b80511561411e5780518082602001fd5b6040517fd6bda27500000000000000000000000000000000000000000000000000000000815260040160405180910390fd5b6001600160a01b0381168114610c2c575f80fd5b5f8060408385031215614175575f80fd5b823561418081614150565b946020939093013593505050565b5f6020828403121561419e575f80fd5b81356001600160e01b031981168114610d6e575f80fd5b5f602082840312156141c5575f80fd5b5035919050565b5f81518084528060208401602086015e5f602082860101526020601f19601f83011685010191505092915050565b602081525f610d6e60208301846141cc565b5f805f6060848603121561421e575f80fd5b833561422981614150565b95602085013595506040909401359392505050565b5f805f8060808587031215614251575f80fd5b5050823594602084013594506040840135936060013592509050565b5f805f6040848603121561427f575f80fd5b833561428a81614150565b9250602084013567ffffffffffffffff808211156142a6575f80fd5b818601915086601f8301126142b9575f80fd5b8135818111156142c7575f80fd5b8760208285010111156142d8575f80fd5b6020830194508093505050509250925092565b634e487b7160e01b5f52604160045260245ffd5b60405160c0810167ffffffffffffffff81118282101715614322576143226142eb565b60405290565b6040805190810167ffffffffffffffff81118282101715614322576143226142eb565b604051601f8201601f1916810167ffffffffffffffff81118282101715614374576143746142eb565b604052919050565b5f67ffffffffffffffff821115614395576143956142eb565b50601f01601f191660200190565b5f80604083850312156143b4575f80fd5b82356143bf81614150565b9150602083013567ffffffffffffffff8111156143da575f80fd5b8301601f810185136143ea575f80fd5b80356143fd6143f88261437c565b61434b565b818152866020838501011115614411575f80fd5b816020840160208301375f602083830101528093505050509250929050565b8015158114610c2c575f80fd5b5f806040838503121561444e575f80fd5b823561445981614150565b9150602083013561446981614430565b809150509250929050565b5f805f60608486031215614486575f80fd5b833561449181614150565b925060208401356144a181614150565b929592945050506040919091013590565b5f602082840312156144c2575f80fd5b81356001600160c01b0381168114610d6e575f80fd5b5f80604083850312156144e9575f80fd5b82356144f481614150565b9150602083013561446981614150565b5f60c08284031215614514575f80fd5b50919050565b5f805f806101c0858703121561452e575f80fd5b6145388686614504565b93506145478660c08701614504565b925061018085013591506101a085013561456081614150565b939692955090935050565b5f6020828403121561457b575f80fd5b8135610d6e81614150565b5f805f60608486031215614598575f80fd5b8335925060208401356144a181614150565b5f815180845260208085019450602084015f5b838110156145d9578151875295820195908201906001016145bd565b509495945050505050565b602081525f6001600160c01b03808451166020840152806020850151166040840152506001600160a01b03604084015116606083015260608301516080830152608083015160a083015260a083015160e060c08401526146486101008401826145aa565b905060c0840151601f198483030160e0850152613d3482826145aa565b8251815260208084015181830152604080850151818401528351606084015290830151608083015282015160a082015260c08101610d6e565b5f805f80608085870312156146b1575f80fd5b84356146bc81614150565b935060208501356146cc81614150565b93969395505050506040820135916060013590565b67ffffffffffffffff81168114610c2c575f80fd5b62ffffff81168114610c2c575f80fd5b5f60c08284031215614716575f80fd5b61471e6142ff565b825161472981614150565b81526020830151614739816146e1565b6020820152604083015161474c81614150565b6040820152606083015161475f816146f6565b6060820152608083015161477281614150565b608082015260a0830151614785816146f6565b60a08201529392505050565b5f82601f8301126147a0575f80fd5b8151602067ffffffffffffffff8211156147bc576147bc6142eb565b6147ca818360051b0161434b565b82815260069290921b840181019181810190868411156147e8575f80fd5b8286015b8481101561483c5760408189031215614803575f80fd5b61480b614328565b81518060020b811461481b575f80fd5b81528185015161482a816146e1565b818601528352918301916040016147ec565b509695505050505050565b5f8060408385031215614858575f80fd5b825167ffffffffffffffff8082111561486f575f80fd5b61487b86838701614791565b93506020850151915080821115614890575f80fd5b5061489d85828601614791565b9150509250929050565b5f815180845260208085019450602084015f5b838110156145d9578151805160020b885283015167ffffffffffffffff1683880152604090960195908201906001016148ba565b6001600160a01b038716815285602082015260c060408201525f61491560c08301876148a7565b828103606084015261492781876148a7565b6080840195909552505060a00152949350505050565b600181811c9082168061495157607f821691505b60208210810361451457634e487b7160e01b5f52602260045260245ffd5b634e487b7160e01b5f52601160045260245ffd5b818103818111156108d5576108d561496f565b808201808211156108d5576108d561496f565b5f602082840312156149b9575f80fd5b815160ff81168114610d6e575f80fd5b60ff82811682821603908111156108d5576108d561496f565b600181815b80851115614a1c57815f1904821115614a0257614a0261496f565b80851615614a0f57918102915b93841c93908002906149e7565b509250929050565b5f82614a32575060016108d5565b81614a3e57505f6108d5565b8160018114614a545760028114614a5e57614a7a565b60019150506108d5565b60ff841115614a6f57614a6f61496f565b50506001821b6108d5565b5060208310610133831016604e8410600b8410161715614a9d575081810a6108d5565b614aa783836149e2565b805f1904821115614aba57614aba61496f565b029392505050565b5f610d6e60ff841683614a24565b80820281158282048414176108d5576108d561496f565b6001600160a01b0383168152604060208201525f6112cd60408301846141cc565b5f60208284031215614b18575f80fd5b815167ffffffffffffffff811115614b2e575f80fd5b8201601f81018413614b3e575f80fd5b8051614b4c6143f88261437c565b818152856020838501011115614b60575f80fd5b8160208401602083015e5f91810160200191909152949350505050565b5f8060408385031215614b8e575f80fd5b505080516020909101519092909150565b818382375f9101908152919050565b5f60c08284031215614bbe575f80fd5b614bc66142ff565b8235614bd181614150565b81526020830135614be1816146e1565b60208201526040830135614bf481614150565b60408201526060830135614c07816146f6565b60608201526080830135614c1a81614150565b608082015260a0830135614785816146f6565b5f60208284031215614c3d575f80fd5b8151610d6e81614430565b8035614c5381614150565b6001600160a01b039081168352602082013590614c6f826146e1565b67ffffffffffffffff8216602085015260408301359150614c8f82614150565b9081166040840152606082013590614ca6826146f6565b62ffffff9182166060850152608083013591614cc183614150565b918116608085015260a083013591614cd8836146f6565b80831660a08601525050505050565b614cf18183614c48565b60e060c082018190525f9082015261010001919050565b5f82614d2257634e487b7160e01b5f52601260045260245ffd5b500490565b6101c08101614d368287614c48565b614d4360c0830186614c48565b836101808301526001600160a01b0383166101a083015295945050505050565b5f60208284031215614d73575f80fd5b5051919050565b634e487b7160e01b5f52603260045260245ffd5b5f7f80000000000000000000000000000000000000000000000000000000000000008203614dbe57614dbe61496f565b505f0390565b5f610140614e2c8385516001600160a01b0380825116835267ffffffffffffffff6020830151166020840152806040830151166040840152606082015162ffffff80821660608601528260808501511660808601528060a08501511660a08601525050505050565b602084015160020b60c0840152604084015167ffffffffffffffff1660e08401526060909301516001600160a01b03166101008301525061012081018290525f918101919091526101600190565b60c081016108d582846001600160a01b0380825116835267ffffffffffffffff6020830151166020840152806040830151166040840152606082015162ffffff80821660608601528260808501511660808601528060a08501511660a08601525050505050565b5f60608284031215614ef1575f80fd5b6040516060810181811067ffffffffffffffff82111715614f1457614f146142eb565b6040528251614f2281614150565b81526020830151614f32816146e1565b60208201526040830151614f45816146e1565b60408201529392505050565b8082018281125f831280158216821582161715614f7057614f7061496f565b505092915050565b8181035f831280158383131683831282161715614f9757614f9761496f565b5092915050565b5f82518060208501845e5f920191825250919050565b5f8160020b627fffff198103614fcc57614fcc61496f565b5f039291505056fea2646970667358221220db8f007ed5632b261c40bb9678348ad618c17b5fe71a527e8852b2d458894ca564736f6c63430008190033",
  "devdoc": {
    "errors": {
      "AddressEmptyCode(address)": [
        {
          "details": "There's no code at `target` (it is not a contract)."
        }
      ],
      "ERC1967InvalidImplementation(address)": [
        {
          "details": "The `implementation` of the proxy is invalid."
        }
      ],
      "ERC1967NonPayable()": [
        {
          "details": "An upgrade function sees `msg.value > 0` that may be lost."
        }
      ],
      "FailedCall()": [
        {
          "details": "A call to an address target failed. The target may have reverted."
        }
      ],
      "InvalidInitialization()": [
        {
          "details": "The contract is already initialized."
        }
      ],
      "NotInitializing()": [
        {
          "details": "The contract is not initializing."
        }
      ],
      "OwnableInvalidOwner(address)": [
        {
          "details": "The owner is not a valid owner account. (eg. `address(0)`)"
        }
      ],
      "OwnableUnauthorizedAccount(address)": [
        {
          "details": "The caller account is not authorized to perform an operation."
        }
      ],
      "ReentrancyGuardReentrantCall()": [
        {
          "details": "Unauthorized reentrant call."
        }
      ],
      "SafeCastOverflowedUintDowncast(uint8,uint256)": [
        {
          "details": "Value doesn't fit in an uint of `bits` size."
        }
      ],
      "SafeERC20FailedOperation(address)": [
        {
          "details": "An operation with an ERC-20 token failed."
        }
      ],
      "UUPSUnauthorizedCallContext()": [
        {
          "details": "The call is from an unauthorized context."
        }
      ],
      "UUPSUnsupportedProxiableUUID(bytes32)": [
        {
          "details": "The storage `slot` is unsupported as a UUID."
        }
      ]
    },
    "events": {
      "Initialized(uint64)": {
        "details": "Triggered when the contract has been initialized or reinitialized."
      },
      "Upgraded(address)": {
        "details": "Emitted when the implementation is upgraded."
      }
    },
    "kind": "dev",
    "methods": {
      "acceptOwnership()": {
        "details": "The new owner accepts the ownership transfer."
      },
      "burn(bytes32,uint256,uint256,uint256)": {
        "params": {
          "amount": "The amount of liquidity tokens to burn.",
          "key": "The key of the pool.",
          "minAmountA": "The amount of the first token to receive.",
          "minAmountB": "The minimum amount of the second token to receive."
        },
        "returns": {
          "withdrawalA": "The amounts of the first and second tokens to receive."
        }
      },
      "collect(address,address)": {
        "details": "Only the owner can collect fees.",
        "params": {
          "currency": "The currency to collect fees for.",
          "to": "The address to send the collected fees to."
        }
      },
      "getBookPairs(bytes32)": {
        "params": {
          "key": "The key of the pool."
        },
        "returns": {
          "_0": "The book ID for the first book.",
          "_1": "The book ID for the second book."
        }
      },
      "getLiquidity(bytes32)": {
        "params": {
          "key": "The key of the pool."
        },
        "returns": {
          "liquidityA": "The liquidity for the first token.",
          "liquidityB": "The liquidity for the second token."
        }
      },
      "getPool(bytes32)": {
        "params": {
          "key": "The key of the pool."
        },
        "returns": {
          "_0": "The pool."
        }
      },
      "lockAcquired(address,bytes)": {
        "params": {
          "data": "The data that was passed to the call to lock"
        },
        "returns": {
          "_0": "Any data that you want to be returned from the lock call"
        }
      },
      "mint(bytes32,uint256,uint256,uint256)": {
        "params": {
          "amountA": "The amount of the first token.",
          "amountB": "The amount of the second token.",
          "key": "The key of the pool.",
          "minLpAmount": "The minimum amount of liquidity tokens to mint."
        },
        "returns": {
          "mintAmount": "The amount of liquidity tokens minted."
        }
      },
      "open((address,uint64,address,uint24,address,uint24),(address,uint64,address,uint24,address,uint24),bytes32,address)": {
        "params": {
          "bookKeyA": "The book key for the first book.",
          "bookKeyB": "The book key for the second book.",
          "salt": "The salt value.",
          "strategy": "The address of the strategy."
        },
        "returns": {
          "_0": "The key of the opened pool."
        }
      },
      "owner()": {
        "details": "Returns the address of the current owner."
      },
      "pendingOwner()": {
        "details": "Returns the address of the pending owner."
      },
      "proxiableUUID()": {
        "details": "Implementation of the ERC-1822 {proxiableUUID} function. This returns the storage slot used by the implementation. It is used to validate the implementation's compatibility when performing an upgrade. IMPORTANT: A proxy pointing at a proxiable contract should not be considered proxiable itself, because this risks bricking a proxy that upgrades to it, by delegating to itself until out of gas. Thus it is critical that this function revert if invoked through a proxy. This is guaranteed by the `notDelegated` modifier."
      },
      "rebalance(bytes32)": {
        "params": {
          "key": "The key of the pool."
        }
      },
      "renounceOwnership()": {
        "details": "Leaves the contract without owner. It will not be possible to call `onlyOwner` functions. Can only be called by the current owner. NOTE: Renouncing ownership will leave the contract without an owner, thereby disabling any functionality that is only available to the owner."
      },
      "transferOwnership(address)": {
        "details": "Starts the ownership transfer of the contract to a new account. Replaces the pending transfer if there is one. Can only be called by the current owner. Setting `newOwner` to the zero address is allowed; this can be used to cancel an initiated ownership transfer."
      },
      "upgradeToAndCall(address,bytes)": {
        "custom:oz-upgrades-unsafe-allow-reachable": "delegatecall",
        "details": "Upgrade the implementation of the proxy to `newImplementation`, and subsequently execute the function call encoded in `data`. Calls {_authorizeUpgrade}. Emits an {Upgraded} event."
      }
    },
    "stateVariables": {
      "bookPair": {
        "params": {
          "bookId": "The book ID."
        },
        "return": "The book pair.",
        "returns": {
          "_0": "The book pair."
        }
      },
      "burnFeeRate": {
        "return": "The burn fee rate.",
        "returns": {
          "_0": "The burn fee rate."
        }
      },
      "fees": {
        "params": {
          "currency": "The currency to check pending fees for"
        },
        "return": "The total amount of uncollected fees in the specified currency",
        "returns": {
          "_0": "The total amount of uncollected fees in the specified currency"
        }
      }
    },
    "version": 1
  },
  "userdoc": {
    "errors": {
      "ERC20TransferFailed()": [
        {
          "notice": "Thrown when an ERC20 transfer fails"
        }
      ],
      "NativeTransferFailed()": [
        {
          "notice": "Thrown when a native transfer fails"
        }
      ]
    },
    "kind": "user",
    "methods": {
      "bookPair(uint192)": {
        "notice": "Retrieves the book pair for a specified book ID."
      },
      "burn(bytes32,uint256,uint256,uint256)": {
        "notice": "Burns liquidity for the specified key."
      },
      "burnFeeRate()": {
        "notice": "Retrieves the burn fee rate."
      },
      "collect(address,address)": {
        "notice": "Collects the pending fees for a given currency."
      },
      "fees(address)": {
        "notice": "Returns the amount of pending fees for a given currency that can be collected"
      },
      "getBookPairs(bytes32)": {
        "notice": "Retrieves the book pairs for a specified key."
      },
      "getLiquidity(bytes32)": {
        "notice": "Retrieves the liquidity for a specified key."
      },
      "getPool(bytes32)": {
        "notice": "Retrieves the pool for a specified key."
      },
      "lockAcquired(address,bytes)": {
        "notice": "Called by the book manager on `msg.sender` when a lock is acquired"
      },
      "mint(bytes32,uint256,uint256,uint256)": {
        "notice": "Mints liquidity for the specified key."
      },
      "open((address,uint64,address,uint24,address,uint24),(address,uint64,address,uint24,address,uint24),bytes32,address)": {
        "notice": "Opens a new pool with the specified parameters."
      },
      "rebalance(bytes32)": {
        "notice": "Rebalances the pool for the specified key."
      }
    },
    "version": 1
  },
  "storageLayout": {
    "storage": [
      {
        "astId": 8,
        "contract": "src/LiquidityVault.sol:LiquidityVault",
        "label": "_owner",
        "offset": 0,
        "slot": "0",
        "type": "t_address"
      },
      {
        "astId": 156,
        "contract": "src/LiquidityVault.sol:LiquidityVault",
        "label": "_pendingOwner",
        "offset": 0,
        "slot": "1",
        "type": "t_address"
      },
      {
        "astId": 8945,
        "contract": "src/LiquidityVault.sol:LiquidityVault",
        "label": "isOperator",
        "offset": 0,
        "slot": "2",
        "type": "t_mapping(t_address,t_mapping(t_address,t_bool))"
      },
      {
        "astId": 8951,
        "contract": "src/LiquidityVault.sol:LiquidityVault",
        "label": "balanceOf",
        "offset": 0,
        "slot": "3",
        "type": "t_mapping(t_address,t_mapping(t_uint256,t_uint256))"
      },
      {
        "astId": 8959,
        "contract": "src/LiquidityVault.sol:LiquidityVault",
        "label": "allowance",
        "offset": 0,
        "slot": "4",
        "type": "t_mapping(t_address,t_mapping(t_address,t_mapping(t_uint256,t_uint256)))"
      },
      {
        "astId": 15403,
        "contract": "src/LiquidityVault.sol:LiquidityVault",
        "label": "totalSupply",
        "offset": 0,
        "slot": "5",
        "type": "t_mapping(t_uint256,t_uint256)"
      },
      {
        "astId": 9483,
        "contract": "src/LiquidityVault.sol:LiquidityVault",
        "label": "_pools",
        "offset": 0,
        "slot": "6",
        "type": "t_mapping(t_bytes32,t_struct(Pool)14809_storage)"
      },
      {
        "astId": 9489,
        "contract": "src/LiquidityVault.sol:LiquidityVault",
        "label": "bookPair",
        "offset": 0,
        "slot": "7",
        "type": "t_mapping(t_userDefinedValueType(BookId)7799,t_userDefinedValueType(BookId)7799)"
      },
      {
        "astId": 9494,
        "contract": "src/LiquidityVault.sol:LiquidityVault",
        "label": "fees",
        "offset": 0,
        "slot": "8",
        "type": "t_mapping(t_userDefinedValueType(Currency)7826,t_uint256)"
      },
      {
        "astId": 9496,
        "contract": "src/LiquidityVault.sol:LiquidityVault",
        "label": "name",
        "offset": 0,
        "slot": "9",
        "type": "t_string_storage"
      },
      {
        "astId": 9498,
        "contract": "src/LiquidityVault.sol:LiquidityVault",
        "label": "symbol",
        "offset": 0,
        "slot": "10",
        "type": "t_string_storage"
      }
    ],
    "types": {
      "t_address": {
        "encoding": "inplace",
        "label": "address",
        "numberOfBytes": "20"
      },
      "t_array(t_userDefinedValueType(OrderId)8234)dyn_storage": {
        "base": "t_userDefinedValueType(OrderId)8234",
        "encoding": "dynamic_array",
        "label": "OrderId[]",
        "numberOfBytes": "32"
      },
      "t_bool": {
        "encoding": "inplace",
        "label": "bool",
        "numberOfBytes": "1"
      },
      "t_bytes32": {
        "encoding": "inplace",
        "label": "bytes32",
        "numberOfBytes": "32"
      },
      "t_contract(IStrategy)15393": {
        "encoding": "inplace",
        "label": "contract IStrategy",
        "numberOfBytes": "20"
      },
      "t_mapping(t_address,t_bool)": {
        "encoding": "mapping",
        "key": "t_address",
        "label": "mapping(address => bool)",
        "numberOfBytes": "32",
        "value": "t_bool"
      },
      "t_mapping(t_address,t_mapping(t_address,t_bool))": {
        "encoding": "mapping",
        "key": "t_address",
        "label": "mapping(address => mapping(address => bool))",
        "numberOfBytes": "32",
        "value": "t_mapping(t_address,t_bool)"
      },
      "t_mapping(t_address,t_mapping(t_address,t_mapping(t_uint256,t_uint256)))": {
        "encoding": "mapping",
        "key": "t_address",
        "label": "mapping(address => mapping(address => mapping(uint256 => uint256)))",
        "numberOfBytes": "32",
        "value": "t_mapping(t_address,t_mapping(t_uint256,t_uint256))"
      },
      "t_mapping(t_address,t_mapping(t_uint256,t_uint256))": {
        "encoding": "mapping",
        "key": "t_address",
        "label": "mapping(address => mapping(uint256 => uint256))",
        "numberOfBytes": "32",
        "value": "t_mapping(t_uint256,t_uint256)"
      },
      "t_mapping(t_bytes32,t_struct(Pool)14809_storage)": {
        "encoding": "mapping",
        "key": "t_bytes32",
        "label": "mapping(bytes32 => struct ILiquidityVault.Pool)",
        "numberOfBytes": "32",
        "value": "t_struct(Pool)14809_storage"
      },
      "t_mapping(t_uint256,t_uint256)": {
        "encoding": "mapping",
        "key": "t_uint256",
        "label": "mapping(uint256 => uint256)",
        "numberOfBytes": "32",
        "value": "t_uint256"
      },
      "t_mapping(t_userDefinedValueType(BookId)7799,t_userDefinedValueType(BookId)7799)": {
        "encoding": "mapping",
        "key": "t_userDefinedValueType(BookId)7799",
        "label": "mapping(BookId => BookId)",
        "numberOfBytes": "32",
        "value": "t_userDefinedValueType(BookId)7799"
      },
      "t_mapping(t_userDefinedValueType(Currency)7826,t_uint256)": {
        "encoding": "mapping",
        "key": "t_userDefinedValueType(Currency)7826",
        "label": "mapping(Currency => uint256)",
        "numberOfBytes": "32",
        "value": "t_uint256"
      },
      "t_string_storage": {
        "encoding": "bytes",
        "label": "string",
        "numberOfBytes": "32"
      },
      "t_struct(Pool)14809_storage": {
        "encoding": "inplace",
        "label": "struct ILiquidityVault.Pool",
        "members": [
          {
            "astId": 14790,
            "contract": "src/LiquidityVault.sol:LiquidityVault",
            "label": "bookIdA",
            "offset": 0,
            "slot": "0",
            "type": "t_userDefinedValueType(BookId)7799"
          },
          {
            "astId": 14793,
            "contract": "src/LiquidityVault.sol:LiquidityVault",
            "label": "bookIdB",
            "offset": 0,
            "slot": "1",
            "type": "t_userDefinedValueType(BookId)7799"
          },
          {
            "astId": 14796,
            "contract": "src/LiquidityVault.sol:LiquidityVault",
            "label": "strategy",
            "offset": 0,
            "slot": "2",
            "type": "t_contract(IStrategy)15393"
          },
          {
            "astId": 14798,
            "contract": "src/LiquidityVault.sol:LiquidityVault",
            "label": "reserveA",
            "offset": 0,
            "slot": "3",
            "type": "t_uint256"
          },
          {
            "astId": 14800,
            "contract": "src/LiquidityVault.sol:LiquidityVault",
            "label": "reserveB",
            "offset": 0,
            "slot": "4",
            "type": "t_uint256"
          },
          {
            "astId": 14804,
            "contract": "src/LiquidityVault.sol:LiquidityVault",
            "label": "orderListA",
            "offset": 0,
            "slot": "5",
            "type": "t_array(t_userDefinedValueType(OrderId)8234)dyn_storage"
          },
          {
            "astId": 14808,
            "contract": "src/LiquidityVault.sol:LiquidityVault",
            "label": "orderListB",
            "offset": 0,
            "slot": "6",
            "type": "t_array(t_userDefinedValueType(OrderId)8234)dyn_storage"
          }
        ],
        "numberOfBytes": "224"
      },
      "t_uint256": {
        "encoding": "inplace",
        "label": "uint256",
        "numberOfBytes": "32"
      },
      "t_userDefinedValueType(BookId)7799": {
        "encoding": "inplace",
        "label": "BookId",
        "numberOfBytes": "24"
      },
      "t_userDefinedValueType(Currency)7826": {
        "encoding": "inplace",
        "label": "Currency",
        "numberOfBytes": "20"
      },
      "t_userDefinedValueType(OrderId)8234": {
        "encoding": "inplace",
        "label": "OrderId",
        "numberOfBytes": "32"
      }
    }
  }
}