{
  "address": "0xFC4646a3892041edF0352C33B2706Faeae62eECf",
  "abi": [
    {
      "inputs": [
        {
          "internalType": "contract IOracle",
          "name": "referenceOracle_",
          "type": "address"
        },
        {
          "internalType": "contract ILiquidityVault",
          "name": "liquidityVault_",
          "type": "address"
        },
        {
          "internalType": "contract IBookManager",
          "name": "bookManager_",
          "type": "address"
        }
      ],
      "stateMutability": "nonpayable",
      "type": "constructor"
    },
    {
      "inputs": [
        {
          "internalType": "address",
          "name": "target",
          "type": "address"
        }
      ],
      "name": "AddressEmptyCode",
      "type": "error"
    },
    {
      "inputs": [
        {
          "internalType": "address",
          "name": "implementation",
          "type": "address"
        }
      ],
      "name": "ERC1967InvalidImplementation",
      "type": "error"
    },
    {
      "inputs": [],
      "name": "ERC1967NonPayable",
      "type": "error"
    },
    {
      "inputs": [],
      "name": "ExceedsThreshold",
      "type": "error"
    },
    {
      "inputs": [],
      "name": "FailedCall",
      "type": "error"
    },
    {
      "inputs": [],
      "name": "InvalidAccess",
      "type": "error"
    },
    {
      "inputs": [],
      "name": "InvalidConfig",
      "type": "error"
    },
    {
      "inputs": [],
      "name": "InvalidInitialization",
      "type": "error"
    },
    {
      "inputs": [],
      "name": "InvalidOraclePrice",
      "type": "error"
    },
    {
      "inputs": [],
      "name": "InvalidPrice",
      "type": "error"
    },
    {
      "inputs": [],
      "name": "InvalidTick",
      "type": "error"
    },
    {
      "inputs": [],
      "name": "InvalidValue",
      "type": "error"
    },
    {
      "inputs": [],
      "name": "NotInitializing",
      "type": "error"
    },
    {
      "inputs": [],
      "name": "NotOperator",
      "type": "error"
    },
    {
      "inputs": [
        {
          "internalType": "address",
          "name": "owner",
          "type": "address"
        }
      ],
      "name": "OwnableInvalidOwner",
      "type": "error"
    },
    {
      "inputs": [
        {
          "internalType": "address",
          "name": "account",
          "type": "address"
        }
      ],
      "name": "OwnableUnauthorizedAccount",
      "type": "error"
    },
    {
      "inputs": [],
      "name": "Paused",
      "type": "error"
    },
    {
      "inputs": [
        {
          "internalType": "uint8",
          "name": "bits",
          "type": "uint8"
        },
        {
          "internalType": "uint256",
          "name": "value",
          "type": "uint256"
        }
      ],
      "name": "SafeCastOverflowedUintDowncast",
      "type": "error"
    },
    {
      "inputs": [],
      "name": "UUPSUnauthorizedCallContext",
      "type": "error"
    },
    {
      "inputs": [
        {
          "internalType": "bytes32",
          "name": "slot",
          "type": "bytes32"
        }
      ],
      "name": "UUPSUnsupportedProxiableUUID",
      "type": "error"
    },
    {
      "anonymous": false,
      "inputs": [
        {
          "indexed": false,
          "internalType": "uint64",
          "name": "version",
          "type": "uint64"
        }
      ],
      "name": "Initialized",
      "type": "event"
    },
    {
      "anonymous": false,
      "inputs": [
        {
          "indexed": true,
          "internalType": "address",
          "name": "previousOwner",
          "type": "address"
        },
        {
          "indexed": true,
          "internalType": "address",
          "name": "newOwner",
          "type": "address"
        }
      ],
      "name": "OwnershipTransferStarted",
      "type": "event"
    },
    {
      "anonymous": false,
      "inputs": [
        {
          "indexed": true,
          "internalType": "address",
          "name": "previousOwner",
          "type": "address"
        },
        {
          "indexed": true,
          "internalType": "address",
          "name": "newOwner",
          "type": "address"
        }
      ],
      "name": "OwnershipTransferred",
      "type": "event"
    },
    {
      "anonymous": false,
      "inputs": [
        {
          "indexed": true,
          "internalType": "bytes32",
          "name": "key",
          "type": "bytes32"
        }
      ],
      "name": "Pause",
      "type": "event"
    },
    {
      "anonymous": false,
      "inputs": [
        {
          "indexed": true,
          "internalType": "address",
          "name": "operator",
          "type": "address"
        },
        {
          "indexed": false,
          "internalType": "bool",
          "name": "status",
          "type": "bool"
        }
      ],
      "name": "SetOperator",
      "type": "event"
    },
    {
      "anonymous": false,
      "inputs": [
        {
          "indexed": true,
          "internalType": "bytes32",
          "name": "key",
          "type": "bytes32"
        }
      ],
      "name": "Unpause",
      "type": "event"
    },
    {
      "anonymous": false,
      "inputs": [
        {
          "indexed": true,
          "internalType": "bytes32",
          "name": "key",
          "type": "bytes32"
        },
        {
          "components": [
            {
              "internalType": "uint24",
              "name": "referenceThreshold",
              "type": "uint24"
            },
            {
              "internalType": "uint24",
              "name": "rebalanceThreshold",
              "type": "uint24"
            },
            {
              "internalType": "uint24",
              "name": "rateA",
              "type": "uint24"
            },
            {
              "internalType": "uint24",
              "name": "rateB",
              "type": "uint24"
            },
            {
              "internalType": "uint24",
              "name": "minRateA",
              "type": "uint24"
            },
            {
              "internalType": "uint24",
              "name": "minRateB",
              "type": "uint24"
            },
            {
              "internalType": "uint24",
              "name": "priceThresholdA",
              "type": "uint24"
            },
            {
              "internalType": "uint24",
              "name": "priceThresholdB",
              "type": "uint24"
            }
          ],
          "indexed": false,
          "internalType": "struct ISimpleOracleStrategy.Config",
          "name": "config",
          "type": "tuple"
        }
      ],
      "name": "UpdateConfig",
      "type": "event"
    },
    {
      "anonymous": false,
      "inputs": [
        {
          "indexed": true,
          "internalType": "bytes32",
          "name": "key",
          "type": "bytes32"
        },
        {
          "indexed": false,
          "internalType": "uint256",
          "name": "oraclePrice",
          "type": "uint256"
        },
        {
          "indexed": false,
          "internalType": "Tick",
          "name": "tickA",
          "type": "int24"
        },
        {
          "indexed": false,
          "internalType": "Tick",
          "name": "tickB",
          "type": "int24"
        },
        {
          "indexed": false,
          "internalType": "uint256",
          "name": "rate",
          "type": "uint256"
        }
      ],
      "name": "UpdatePosition",
      "type": "event"
    },
    {
      "anonymous": false,
      "inputs": [
        {
          "indexed": true,
          "internalType": "address",
          "name": "implementation",
          "type": "address"
        }
      ],
      "name": "Upgraded",
      "type": "event"
    },
    {
      "inputs": [],
      "name": "LAST_RAW_AMOUNT_MASK",
      "outputs": [
        {
          "internalType": "uint256",
          "name": "",
          "type": "uint256"
        }
      ],
      "stateMutability": "view",
      "type": "function"
    },
    {
      "inputs": [],
      "name": "RATE_PRECISION",
      "outputs": [
        {
          "internalType": "uint256",
          "name": "",
          "type": "uint256"
        }
      ],
      "stateMutability": "view",
      "type": "function"
    },
    {
      "inputs": [],
      "name": "UPGRADE_INTERFACE_VERSION",
      "outputs": [
        {
          "internalType": "string",
          "name": "",
          "type": "string"
        }
      ],
      "stateMutability": "view",
      "type": "function"
    },
    {
      "inputs": [],
      "name": "acceptOwnership",
      "outputs": [],
      "stateMutability": "nonpayable",
      "type": "function"
    },
    {
      "inputs": [],
      "name": "bookManager",
      "outputs": [
        {
          "internalType": "contract IBookManager",
          "name": "",
          "type": "address"
        }
      ],
      "stateMutability": "view",
      "type": "function"
    },
    {
      "inputs": [
        {
          "internalType": "address",
          "name": "",
          "type": "address"
        },
        {
          "internalType": "bytes32",
          "name": "key",
          "type": "bytes32"
        },
        {
          "internalType": "uint256",
          "name": "burnAmount",
          "type": "uint256"
        },
        {
          "internalType": "uint256",
          "name": "lastTotalSupply",
          "type": "uint256"
        }
      ],
      "name": "burnHook",
      "outputs": [],
      "stateMutability": "nonpayable",
      "type": "function"
    },
    {
      "inputs": [
        {
          "internalType": "bytes32",
          "name": "key",
          "type": "bytes32"
        }
      ],
      "name": "computeOrders",
      "outputs": [
        {
          "components": [
            {
              "internalType": "Tick",
              "name": "tick",
              "type": "int24"
            },
            {
              "internalType": "uint64",
              "name": "rawAmount",
              "type": "uint64"
            }
          ],
          "internalType": "struct IStrategy.Order[]",
          "name": "ordersA",
          "type": "tuple[]"
        },
        {
          "components": [
            {
              "internalType": "Tick",
              "name": "tick",
              "type": "int24"
            },
            {
              "internalType": "uint64",
              "name": "rawAmount",
              "type": "uint64"
            }
          ],
          "internalType": "struct IStrategy.Order[]",
          "name": "ordersB",
          "type": "tuple[]"
        }
      ],
      "stateMutability": "view",
      "type": "function"
    },
    {
      "inputs": [
        {
          "internalType": "bytes32",
          "name": "key",
          "type": "bytes32"
        }
      ],
      "name": "getConfig",
      "outputs": [
        {
          "components": [
            {
              "internalType": "uint24",
              "name": "referenceThreshold",
              "type": "uint24"
            },
            {
              "internalType": "uint24",
              "name": "rebalanceThreshold",
              "type": "uint24"
            },
            {
              "internalType": "uint24",
              "name": "rateA",
              "type": "uint24"
            },
            {
              "internalType": "uint24",
              "name": "rateB",
              "type": "uint24"
            },
            {
              "internalType": "uint24",
              "name": "minRateA",
              "type": "uint24"
            },
            {
              "internalType": "uint24",
              "name": "minRateB",
              "type": "uint24"
            },
            {
              "internalType": "uint24",
              "name": "priceThresholdA",
              "type": "uint24"
            },
            {
              "internalType": "uint24",
              "name": "priceThresholdB",
              "type": "uint24"
            }
          ],
          "internalType": "struct ISimpleOracleStrategy.Config",
          "name": "",
          "type": "tuple"
        }
      ],
      "stateMutability": "view",
      "type": "function"
    },
    {
      "inputs": [
        {
          "internalType": "bytes32",
          "name": "key",
          "type": "bytes32"
        }
      ],
      "name": "getLastAmount",
      "outputs": [
        {
          "internalType": "uint256",
          "name": "",
          "type": "uint256"
        },
        {
          "internalType": "uint256",
          "name": "",
          "type": "uint256"
        }
      ],
      "stateMutability": "view",
      "type": "function"
    },
    {
      "inputs": [
        {
          "internalType": "bytes32",
          "name": "key",
          "type": "bytes32"
        }
      ],
      "name": "getPosition",
      "outputs": [
        {
          "components": [
            {
              "internalType": "bool",
              "name": "paused",
              "type": "bool"
            },
            {
              "internalType": "uint176",
              "name": "oraclePrice",
              "type": "uint176"
            },
            {
              "internalType": "uint24",
              "name": "rate",
              "type": "uint24"
            },
            {
              "internalType": "Tick",
              "name": "tickA",
              "type": "int24"
            },
            {
              "internalType": "Tick",
              "name": "tickB",
              "type": "int24"
            }
          ],
          "internalType": "struct ISimpleOracleStrategy.Position",
          "name": "",
          "type": "tuple"
        }
      ],
      "stateMutability": "view",
      "type": "function"
    },
    {
      "inputs": [
        {
          "internalType": "address",
          "name": "initialOwner",
          "type": "address"
        }
      ],
      "name": "initialize",
      "outputs": [],
      "stateMutability": "nonpayable",
      "type": "function"
    },
    {
      "inputs": [
        {
          "internalType": "address",
          "name": "",
          "type": "address"
        }
      ],
      "name": "isOperator",
      "outputs": [
        {
          "internalType": "bool",
          "name": "",
          "type": "bool"
        }
      ],
      "stateMutability": "view",
      "type": "function"
    },
    {
      "inputs": [
        {
          "internalType": "bytes32",
          "name": "key",
          "type": "bytes32"
        }
      ],
      "name": "isOraclePriceValid",
      "outputs": [
        {
          "internalType": "bool",
          "name": "",
          "type": "bool"
        }
      ],
      "stateMutability": "view",
      "type": "function"
    },
    {
      "inputs": [
        {
          "internalType": "bytes32",
          "name": "key",
          "type": "bytes32"
        }
      ],
      "name": "isPaused",
      "outputs": [
        {
          "internalType": "bool",
          "name": "",
          "type": "bool"
        }
      ],
      "stateMutability": "view",
      "type": "function"
    },
    {
      "inputs": [],
      "name": "liquidityVault",
      "outputs": [
        {
          "internalType": "contract ILiquidityVault",
          "name": "",
          "type": "address"
        }
      ],
      "stateMutability": "view",
      "type": "function"
    },
    {
      "inputs": [
        {
          "internalType": "address",
          "name": "",
          "type": "address"
        },
        {
          "internalType": "bytes32",
          "name": "",
          "type": "bytes32"
        },
        {
          "internalType": "uint256",
          "name": "",
          "type": "uint256"
        },
        {
          "internalType": "uint256",
          "name": "",
          "type": "uint256"
        }
      ],
      "name": "mintHook",
      "outputs": [],
      "stateMutability": "view",
      "type": "function"
    },
    {
      "inputs": [],
      "name": "owner",
      "outputs": [
        {
          "internalType": "address",
          "name": "",
          "type": "address"
        }
      ],
      "stateMutability": "view",
      "type": "function"
    },
    {
      "inputs": [
        {
          "internalType": "bytes32",
          "name": "key",
          "type": "bytes32"
        }
      ],
      "name": "pause",
      "outputs": [],
      "stateMutability": "nonpayable",
      "type": "function"
    },
    {
      "inputs": [],
      "name": "pendingOwner",
      "outputs": [
        {
          "internalType": "address",
          "name": "",
          "type": "address"
        }
      ],
      "stateMutability": "view",
      "type": "function"
    },
    {
      "inputs": [],
      "name": "proxiableUUID",
      "outputs": [
        {
          "internalType": "bytes32",
          "name": "",
          "type": "bytes32"
        }
      ],
      "stateMutability": "view",
      "type": "function"
    },
    {
      "inputs": [
        {
          "internalType": "address",
          "name": "",
          "type": "address"
        },
        {
          "internalType": "bytes32",
          "name": "key",
          "type": "bytes32"
        },
        {
          "components": [
            {
              "internalType": "Tick",
              "name": "tick",
              "type": "int24"
            },
            {
              "internalType": "uint64",
              "name": "rawAmount",
              "type": "uint64"
            }
          ],
          "internalType": "struct IStrategy.Order[]",
          "name": "",
          "type": "tuple[]"
        },
        {
          "components": [
            {
              "internalType": "Tick",
              "name": "tick",
              "type": "int24"
            },
            {
              "internalType": "uint64",
              "name": "rawAmount",
              "type": "uint64"
            }
          ],
          "internalType": "struct IStrategy.Order[]",
          "name": "",
          "type": "tuple[]"
        },
        {
          "internalType": "uint256",
          "name": "amountA",
          "type": "uint256"
        },
        {
          "internalType": "uint256",
          "name": "amountB",
          "type": "uint256"
        }
      ],
      "name": "rebalanceHook",
      "outputs": [],
      "stateMutability": "nonpayable",
      "type": "function"
    },
    {
      "inputs": [],
      "name": "referenceOracle",
      "outputs": [
        {
          "internalType": "contract IOracle",
          "name": "",
          "type": "address"
        }
      ],
      "stateMutability": "view",
      "type": "function"
    },
    {
      "inputs": [],
      "name": "renounceOwnership",
      "outputs": [],
      "stateMutability": "nonpayable",
      "type": "function"
    },
    {
      "inputs": [
        {
          "internalType": "bytes32",
          "name": "key",
          "type": "bytes32"
        },
        {
          "components": [
            {
              "internalType": "uint24",
              "name": "referenceThreshold",
              "type": "uint24"
            },
            {
              "internalType": "uint24",
              "name": "rebalanceThreshold",
              "type": "uint24"
            },
            {
              "internalType": "uint24",
              "name": "rateA",
              "type": "uint24"
            },
            {
              "internalType": "uint24",
              "name": "rateB",
              "type": "uint24"
            },
            {
              "internalType": "uint24",
              "name": "minRateA",
              "type": "uint24"
            },
            {
              "internalType": "uint24",
              "name": "minRateB",
              "type": "uint24"
            },
            {
              "internalType": "uint24",
              "name": "priceThresholdA",
              "type": "uint24"
            },
            {
              "internalType": "uint24",
              "name": "priceThresholdB",
              "type": "uint24"
            }
          ],
          "internalType": "struct ISimpleOracleStrategy.Config",
          "name": "config",
          "type": "tuple"
        }
      ],
      "name": "setConfig",
      "outputs": [],
      "stateMutability": "nonpayable",
      "type": "function"
    },
    {
      "inputs": [
        {
          "internalType": "address",
          "name": "operator",
          "type": "address"
        },
        {
          "internalType": "bool",
          "name": "status",
          "type": "bool"
        }
      ],
      "name": "setOperator",
      "outputs": [],
      "stateMutability": "nonpayable",
      "type": "function"
    },
    {
      "inputs": [
        {
          "internalType": "address",
          "name": "newOwner",
          "type": "address"
        }
      ],
      "name": "transferOwnership",
      "outputs": [],
      "stateMutability": "nonpayable",
      "type": "function"
    },
    {
      "inputs": [
        {
          "internalType": "bytes32",
          "name": "key",
          "type": "bytes32"
        }
      ],
      "name": "unpause",
      "outputs": [],
      "stateMutability": "nonpayable",
      "type": "function"
    },
    {
      "inputs": [
        {
          "internalType": "bytes32",
          "name": "key",
          "type": "bytes32"
        },
        {
          "internalType": "uint256",
          "name": "oraclePrice",
          "type": "uint256"
        },
        {
          "internalType": "Tick",
          "name": "tickA",
          "type": "int24"
        },
        {
          "internalType": "Tick",
          "name": "tickB",
          "type": "int24"
        },
        {
          "internalType": "uint24",
          "name": "rate",
          "type": "uint24"
        }
      ],
      "name": "updatePosition",
      "outputs": [],
      "stateMutability": "nonpayable",
      "type": "function"
    },
    {
      "inputs": [
        {
          "internalType": "address",
          "name": "newImplementation",
          "type": "address"
        },
        {
          "internalType": "bytes",
          "name": "data",
          "type": "bytes"
        }
      ],
      "name": "upgradeToAndCall",
      "outputs": [],
      "stateMutability": "payable",
      "type": "function"
    }
  ],
  "transactionHash": "0x7c0c66fb77ab5a5a058a9cc74fe3c9e7678a9996d04c05e232af611505263428",
  "args": [
    "0xb0272A76d2B2414415D474d55b2fAe15f04E3D20",
    "0xeA0E19fbca0D9D707f3dA10Ef846cC255B0aAdf3",
    "0x382CCccbD3b142D7DA063bF68cd0c89634767F76"
  ],
  "numDeployments": 1,
  "solcInputHash": "bb08b08c607a06add251fc51587fdadf",
  "bytecode": "0x61010060405230608052348015610014575f80fd5b50604051613deb380380613deb833981016040819052610033916100fe565b338061005857604051631e4fbdf760e01b81525f600482015260240160405180910390fd5b6100618161007f565b506001600160a01b0392831660a05290821660c0521660e052610148565b600180546001600160a01b03191690556100988161009b565b50565b5f80546001600160a01b038381166001600160a01b0319831681178455604051919092169283917f8be0079c531659141344cd1fd0a4f28419497f9722a3daafe3b4186f6b6457e09190a35050565b6001600160a01b0381168114610098575f80fd5b5f805f60608486031215610110575f80fd5b835161011b816100ea565b602085015190935061012c816100ea565b604085015190925061013d816100ea565b809150509250925092565b60805160a05160c05160e051613bf26101f95f395f81816103fc01528181610d8a01528181610e1c015281816116ac015281816117930152611d7d01525f81816105c101528181610cff01528181610ebf015281816112910152818161161701528181611ce101528181611e250152611faf01525f8181610384015281816118d20152818161225d015281816122fa015261255301525f81816127e60152818161280f01526129920152613bf25ff3fe6080604052600436106101ba575f3560e01c8063708666ad116100f2578063a3c8dc1f11610092578063db7c74b611610062578063db7c74b614610768578063e30c397814610787578063ed56531a146107a4578063f2fde38b146107c3575f80fd5b8063a3c8dc1f14610684578063ad3cb1cc146106d1578063b5a562bd14610726578063c4d66de814610749575f80fd5b80638da5cb5b116100cd5780638da5cb5b1461060b578063a0f1533114610627578063a30416d314610646578063a3a36f5514610665575f80fd5b8063708666ad146105b0578063715018a6146105e357806379ba5097146105f7575f80fd5b80633f322bc91161015d57806352d1902d1161013857806352d1902d14610450578063558a7297146104645780636d70f7ae146104835780636dd5b69d146104b1575f80fd5b80633f322bc9146103eb5780634424d7f51461041e5780634f1ef2861461043d575f80fd5b80632b3ba681116101985780632b3ba681146103305780632f4dae9f14610354578063337cceb9146103735780633b93fabc146103be575f80fd5b8063063570bd146101be5780631928b3cb146101df578063241b71bb146102f2575b5f80fd5b3480156101c9575f80fd5b506101dd6101d83660046131d3565b6107e2565b005b3480156101ea575f80fd5b506102926101f9366004613299565b6040805160a0810182525f80825260208201819052918101829052606081018290526080810191909152505f90815260046020908152604091829020825160a081018452905460ff8116151582526001600160b01b036101008204169282019290925262ffffff600160b81b83041692810192909252600160d01b8104600290810b6060840152600160e81b909104900b608082015290565b6040516102e991905f60a0820190508251151582526001600160b01b03602084015116602083015262ffffff6040840151166040830152606083015160020b6060830152608083015160020b608083015292915050565b60405180910390f35b3480156102fd575f80fd5b5061032061030c366004613299565b5f9081526004602052604090205460ff1690565b60405190151581526020016102e9565b34801561033b575f80fd5b50610346620f424081565b6040519081526020016102e9565b34801561035f575f80fd5b506101dd61036e366004613299565b610a9d565b34801561037e575f80fd5b506103a67f000000000000000000000000000000000000000000000000000000000000000081565b6040516001600160a01b0390911681526020016102e9565b3480156103c9575f80fd5b506103dd6103d8366004613299565b610b0b565b6040516102e9929190613302565b3480156103f6575f80fd5b506103a67f000000000000000000000000000000000000000000000000000000000000000081565b348015610429575f80fd5b506101dd61043836600461341d565b611286565b6101dd61044b3660046134a9565b6112f2565b34801561045b575f80fd5b50610346611311565b34801561046f575f80fd5b506101dd61047e36600461354b565b61133f565b34801561048e575f80fd5b5061032061049d366004613586565b60026020525f908152604090205460ff1681565b3480156104bc575f80fd5b506105a36104cb366004613299565b60408051610100810182525f80825260208201819052918101829052606081018290526080810182905260a0810182905260c0810182905260e0810191909152505f90815260036020908152604091829020825161010081018452905462ffffff808216835263010000008204811693830193909352660100000000000081048316938201939093526901000000000000000000830482166060820152600160601b830482166080820152600160781b8304821660a0820152600160901b8304821660c0820152600160a81b9092041660e082015290565b6040516102e991906135a1565b3480156105bb575f80fd5b506103a67f000000000000000000000000000000000000000000000000000000000000000081565b3480156105ee575f80fd5b506101dd61139e565b348015610602575f80fd5b506101dd6113b1565b348015610616575f80fd5b505f546001600160a01b03166103a6565b348015610632575f80fd5b506101dd610641366004613624565b6113fa565b348015610651575f80fd5b50610320610660366004613299565b611bcd565b348015610670575f80fd5b506101dd61067f36600461367b565b611e1a565b34801561068f575f80fd5b506106bc61069e366004613299565b5f908152600560209081526040808320546006909252909120549091565b604080519283526020830191909152016102e9565b3480156106dc575f80fd5b506107196040518060400160405280600581526020017f352e302e3000000000000000000000000000000000000000000000000000000081525081565b6040516102e991906136b3565b348015610731575f80fd5b506103466fffffffffffffffffffffffffffffffff81565b348015610754575f80fd5b506101dd610763366004613586565b611e69565b348015610773575f80fd5b506101dd61078236600461367b565b611fa4565b348015610792575f80fd5b506001546001600160a01b03166103a6565b3480156107af575f80fd5b506101dd6107be366004613299565b612081565b3480156107ce575f80fd5b506101dd6107dd366004613586565b612109565b6107ea612186565b620f4240815f015162ffffff16118061080e5750620f4240816020015162ffffff16115b806108245750620f4240816040015162ffffff16115b8061083a5750620f4240816060015162ffffff16115b806108505750620f4240816080015162ffffff16115b806108665750620f42408160a0015162ffffff16115b8061087c5750620f42408160c0015162ffffff16115b806108925750620f42408160e0015162ffffff16115b156108b0576040516306b7c75960e31b815260040160405180910390fd5b806080015162ffffff16816040015162ffffff1610806108e157508060a0015162ffffff16816060015162ffffff16105b156108ff576040516306b7c75960e31b815260040160405180910390fd5b5f828152600360209081526040918290208351815492850151858501516060870151608088015160a089015160c08a015160e08b015162ffffff97881665ffffffffffff19909a1699909917630100000096881696909602959095176bffffffffffff00000000000019166601000000000000948716949094026bffffff000000000000000000191693909317690100000000000000000092861692909202919091177fffffffffffffffffffffffffffff000000000000ffffffffffffffffffffffff16600160601b918516919091027fffffffffffffffffffffffffffff000000ffffffffffffffffffffffffffffff1617600160781b91841691909102177fffffffffffffffff000000000000ffffffffffffffffffffffffffffffffffff16600160901b918316919091027fffffffffffffffff000000ffffffffffffffffffffffffffffffffffffffffff1617600160a81b91909316029190911790555182907fa6796aaa3e8df6d8ed1c3d26d8a54828d50465a6b4151685c28954b40e3be4c190610a919084906135a1565b60405180910390a25050565b335f9081526002602052604090205460ff16610acc57604051631f0853c160e21b815260040160405180910390fd5b5f81815260046020526040808220805460ff191690555182917fbd104d77fb864be973a9ad3964a3b186ad15178d292d6e9b0e6783e16162fd2291a250565b5f81815260046020908152604091829020825160a081018452905460ff811615801583526001600160b01b036101008304169383019390935262ffffff600160b81b82041693820193909352600160d01b8304600290810b606083810191909152600160e81b909404900b60808201528291610bb3576040517f9e87fac800000000000000000000000000000000000000000000000000000000815260040160405180910390fd5b5f848152600360209081526040808320815161010081018352905462ffffff80821683526301000000820481168386015266010000000000008204811683850152690100000000000000000082048116606080850191909152600160601b83048216608080860191909152600160781b8404831660a080870191909152600160901b8504841660c080880191909152600160a81b90950490931660e086015285518085018752888152808801899052808701899052808301899052808201899052808401899052865194850187528885528488018990528487018990528483018990529084018890529183018790528451908101855286815294850186905292840194909452929091610cdd60405180606001604052805f81526020015f81526020015f81525090565b60405163c630ed7d60e01b8152600481018a90525f9081906001600160a01b037f0000000000000000000000000000000000000000000000000000000000000000169063c630ed7d906024016040805180830381865afa158015610d43573d5f803e3d5ffd5b505050506040513d601f19601f82011682018060405250810190610d6791906136fe565b604051639b22917d60e01b81526001600160c01b038316600482015291935091507f00000000000000000000000000000000000000000000000000000000000000006001600160a01b031690639b22917d9060240160c060405180830381865afa158015610dd7573d5f803e3d5ffd5b505050506040513d601f19601f82011682018060405250810190610dfb919061372f565b604051639b22917d60e01b81526001600160c01b03831660048201529096507f00000000000000000000000000000000000000000000000000000000000000006001600160a01b031690639b22917d9060240160c060405180830381865afa158015610e69573d5f803e3d5ffd5b505050506040513d601f19601f82011682018060405250810190610e8d919061372f565b6040517ffa6793d5000000000000000000000000000000000000000000000000000000008152600481018d90529095507f00000000000000000000000000000000000000000000000000000000000000006001600160a01b03169063fa6793d59060240160c060405180830381865afa158015610f0c573d5f803e3d5ffd5b505050506040513d601f19601f82011682018060405250810190610f309190613832565b5f8d8152600560205260409020549195509350151580610f5c57505f8b81526006602052604090205415155b8015610fde5750620f4240876020015162ffffff1660055f8e81526020019081526020015f2054610f8d9190613870565b610f97919061389b565b84604001511180610fde5750620f4240876020015162ffffff1660065f8e81526020019081526020015f2054610fcd9190613870565b610fd7919061389b565b8360400151115b15610ff0575050505050505050915091565b61101888602001516001600160b01b0316885f015162ffffff168860400151895f01516121b2565b6110345760405162fc7cad60e51b815260040160405180910390fd5b50505f806110a984602001518560400151865f015161105391906138ba565b61105d91906138ba565b60208501516040860151865161107391906138ba565b61107d91906138ba565b8a602001516001600160b01b03166110988a60400151612422565b8a516110a390612422565b8c6124a0565b915091506110c0866060015162ffffff1660171c90565b156110dd5760608601516110da9062ffffff16835f61275e565b91505b6110f0856060015162ffffff1660171c90565b1561110d57606085015161110a9062ffffff16825f61275e565b90505b60408051600180825281830190925290816020015b604080518082019091525f8082526020820152815260200190600190039081611122575050604080516001808252818301909252919b50602082015b604080518082019091525f808252602082015281526020019060019003908161115e5790505098506040518060400160405280896060015160020b81526020016111e2620f4240896020015167ffffffffffffffff168c6040015162ffffff16876111c99190613870565b6111d3919061389b565b6111dd919061389b565b6127a1565b67ffffffffffffffff168152508a5f81518110611201576112016138cd565b60200260200101819052506040518060400160405280896080015160020b815260200161124f620f4240886020015167ffffffffffffffff168c6040015162ffffff16866111c99190613870565b67ffffffffffffffff16815250895f8151811061126e5761126e6138cd565b60200260200101819052505050505050505050915091565b336001600160a01b037f000000000000000000000000000000000000000000000000000000000000000016146112cf57604051633006171960e21b815260040160405180910390fd5b5f9485526005602090815260408087209390935560069052932092909255505050565b6112fa6127db565b61130382612892565b61130d828261289a565b5050565b5f61131a612987565b507f360894a13ba1a3210667c828492db98dca3e2076cc3735a920a3ca505d382bbc90565b611347612186565b6001600160a01b0382165f81815260026020908152604091829020805460ff191685151590811790915591519182527f1618a22a3b00b9ac70fd5a82f1f5cdd8cb272bd0f1b740ddf7c26ab05881dd5b9101610a91565b6113a6612186565b6113af5f6129d0565b565b60015433906001600160a01b031681146113ee5760405163118cdaa760e01b81526001600160a01b03821660048201526024015b60405180910390fd5b6113f7816129d0565b50565b335f9081526002602052604090205460ff1661142957604051631f0853c160e21b815260040160405180910390fd5b620f42408162ffffff16111561146b576040517faa7feadc00000000000000000000000000000000000000000000000000000000815260040160405180910390fd5b5f6114788460020b6129f6565b90505f61148f611487856138e1565b60020b6129f6565b5f88815260036020908152604091829020825161010081018452905462ffffff808216835263010000008204811693830193909352660100000000000081048316938201939093526901000000000000000000830482166060820152600160601b830482166080820152600160781b8304821660a0820152600160901b8304821660c0820152600160a81b9092041660e082015290915062149bbb87108061154c5750750c6c1313451aab317fb9b67e11777e9a5a6ccdb2ebae87115b80611585575082620f42408260c0015162ffffff16620f424061156f91906138ba565b611579908a613870565b611583919061389b565b105b806115be575081620f42408260e0015162ffffff16620f42406115a89190613901565b6115b2908a613870565b6115bc919061389b565b115b156115f5576040517f107826c200000000000000000000000000000000000000000000000000000000815260040160405180910390fd5b60405163c630ed7d60e01b8152600481018990525f9081906001600160a01b037f0000000000000000000000000000000000000000000000000000000000000000169063c630ed7d906024016040805180830381865afa15801561165b573d5f803e3d5ffd5b505050506040513d601f19601f8201168201806040525081019061167f91906136fe565b604051639b22917d60e01b81526001600160c01b038316600482015291935091505f906001600160a01b037f00000000000000000000000000000000000000000000000000000000000000001690639b22917d9060240160c060405180830381865afa1580156116f1573d5f803e3d5ffd5b505050506040513d601f19601f82011682018060405250810190611715919061372f565b905061172a816060015162ffffff1660171c90565b6117495760608101516117449062ffffff1687600161275e565b611768565b606081015161175e9062ffffff16875f612cb5565b6117689087613914565b604051639b22917d60e01b81526001600160c01b03841660048201529096505f906001600160a01b037f00000000000000000000000000000000000000000000000000000000000000001690639b22917d9060240160c060405180830381865afa1580156117d8573d5f803e3d5ffd5b505050506040513d601f19601f820116820180604052508101906117fc919061372f565b9050611811816060015162ffffff1660171c90565b61183957606081015161182a9062ffffff16875f612cb5565b611834908761393b565b61184e565b606081015161184e9062ffffff16875f61275e565b9550858710611888576040517ebfc92100000000000000000000000000000000000000000000000000000000815260040160405180910390fd5b6118958260400151612422565b6118a090600a613a3a565b82516118ab90612422565b6118b690600a613a3a565b6118c0908d613870565b6118ca919061389b565b9a506119658b7f00000000000000000000000000000000000000000000000000000000000000006001600160a01b031663313ce5676040518163ffffffff1660e01b8152600401602060405180830381865afa15801561192c573d5f803e3d5ffd5b505050506040513d601f19601f820116820180604052508101906119509190613a48565b61195b90600a613a3a565b600160601b612d35565b9a506119828b865f015162ffffff168460400151855f01516121b2565b61199e5760405162fc7cad60e51b815260040160405180910390fd5b5f8c815260046020908152604091829020825160a081018452905460ff8116151582526001600160b01b036101008204169282019290925262ffffff600160b81b83041692810192909252600160d01b8104600290810b6060840152600160e81b909104900b6080820152611a128c612dec565b81602001906001600160b01b031690816001600160b01b0316815250508a816060019060020b908160020b8152505089816080019060020b908160020b8152505088816040019062ffffff16908162ffffff16815250508060045f8f81526020019081526020015f205f820151815f015f6101000a81548160ff0219169083151502179055506020820151815f0160016101000a8154816001600160b01b0302191690836001600160b01b031602179055506040820151815f0160176101000a81548162ffffff021916908362ffffff1602179055506060820151815f01601a6101000a81548162ffffff021916908360020b62ffffff1602179055506080820151815f01601d6101000a81548162ffffff021916908360020b62ffffff16021790555090505060055f8e81526020019081526020015f205f905560065f8e81526020019081526020015f205f90558c7f6bfe82e0fc1c0e49aa5a610028c276fddb4bc3c4f8ae34f09277ce63597818f98d8d8d8d604051611bb69493929190938452600292830b6020850152910b604083015262ffffff16606082015260800190565b60405180910390a250505050505050505050505050565b5f81815260036020908152604080832081516101008082018452915462ffffff80821683526301000000820481168387015266010000000000008204811683860152690100000000000000000082048116606080850191909152600160601b83048216608080860191909152600160781b8404831660a080870191909152600160901b8504841660c0870152600160a81b909404831660e08601528989526004808952878a20885195860189525460ff8116151586529687046001600160b01b031698850198909852600160b81b860490921683870152600160d01b8504600290810b91840191909152600160e81b90940490930b92810192909252915163c630ed7d60e01b8152928301859052909183907f00000000000000000000000000000000000000000000000000000000000000006001600160a01b03169063c630ed7d906024016040805180830381865afa158015611d2d573d5f803e3d5ffd5b505050506040513d601f19601f82011682018060405250810190611d5191906136fe565b50604051639b22917d60e01b81526001600160c01b03821660048201529091505f906001600160a01b037f00000000000000000000000000000000000000000000000000000000000000001690639b22917d9060240160c060405180830381865afa158015611dc2573d5f803e3d5ffd5b505050506040513d601f19601f82011682018060405250810190611de6919061372f565b9050611e1083602001516001600160b01b0316855f015162ffffff168360400151845f01516121b2565b9695505050505050565b336001600160a01b037f00000000000000000000000000000000000000000000000000000000000000001614611e6357604051633006171960e21b815260040160405180910390fd5b50505050565b7ff0c57e16840df040f15088dc2f81fe391c3923bec73e23a9662efc9c229c6a00805468010000000000000000810460ff16159067ffffffffffffffff165f81158015611eb35750825b90505f8267ffffffffffffffff166001148015611ecf5750303b155b905081158015611edd575080155b15611f14576040517ff92ee8a900000000000000000000000000000000000000000000000000000000815260040160405180910390fd5b845467ffffffffffffffff191660011785558315611f4857845468ff00000000000000001916680100000000000000001785555b611f51866129d0565b8315611f9c57845468ff000000000000000019168555604051600181527fc7f505b2f371ae2175ee4913f4499e1f2633a7b5936321eed1cdaeb6115181d29060200160405180910390a15b505050505050565b336001600160a01b037f00000000000000000000000000000000000000000000000000000000000000001614611fed57604051633006171960e21b815260040160405180910390fd5b5f838152600560205260409020548190612008908490613870565b612012919061389b565b5f848152600560205260408120805490919061202f908490613901565b90915550505f83815260066020526040902054819061204f908490613870565b612059919061389b565b5f8481526006602052604081208054909190612076908490613901565b909155505050505050565b335f9081526002602052604090205460ff166120b057604051631f0853c160e21b815260040160405180910390fd5b5f818152600560209081526040808320839055600682528083208390556004909152808220805460ff191660011790555182917f6e78d720a83dbf19884c4e27501ba84a8a2e5ca1503419b03ee68d28d548e85791a250565b612111612186565b600180546001600160a01b03831673ffffffffffffffffffffffffffffffffffffffff19909116811790915561214e5f546001600160a01b031690565b6001600160a01b03167f38d16b8cac22d99fc7c124b9cd0de2d3fa1faef420bfe791d8c362d765e2270060405160405180910390a350565b5f546001600160a01b031633146113af5760405163118cdaa760e01b81523360048201526024016113e5565b6040805160028082526060820183525f9283928392909160208301908036833701905050905084815f815181106121eb576121eb6138cd565b60200260200101906001600160a01b031690816001600160a01b031681525050838160018151811061221f5761221f6138cd565b6001600160a01b0392831660209182029290920101526040517f9d23d9f20000000000000000000000000000000000000000000000000000000081527f000000000000000000000000000000000000000000000000000000000000000090911690639d23d9f290612294908490600401613a68565b5f60405180830381865afa9250505080156122d057506040513d5f823e601f3d908101601f191682016040526122cd9190810190613ab4565b60015b6122de575f9250505061241a565b805f815181106122f0576122f06138cd565b60200260200101517f00000000000000000000000000000000000000000000000000000000000000006001600160a01b031663313ce5676040518163ffffffff1660e01b8152600401602060405180830381865afa158015612354573d5f803e3d5ffd5b505050506040513d601f19601f820116820180604052508101906123789190613a48565b61238390600a613a3a565b82600181518110612396576123966138cd565b60200260200101516123a89190613870565b6123b2919061389b565b92505086620f42406123c488826138ba565b6123ce9085613870565b6123d8919061389b565b1080612404575086620f42406123ee8882613901565b6123f89085613870565b612402919061389b565b115b15612413575f9250505061241a565b6001925050505b949350505050565b5f6001600160a01b0382161561249757816001600160a01b031663313ce5676040518163ffffffff1660e01b8152600401602060405180830381865afa15801561246e573d5f803e3d5ffd5b505050506040513d601f19601f820116820180604052508101906124929190613a48565b61249a565b60125b92915050565b5f808360ff168560ff1611156124d6576124ba8486613b40565b6124c590600a613a3a565b6124cf9088613870565b9650612506565b8360ff168560ff161015612506576124ee8585613b40565b6124f990600a613a3a565b6125039089613870565b97505b620f4240836040015162ffffff168961251f9190613870565b612529919061389b565b9150620f4240836060015162ffffff16886125449190613870565b61254e919061389b565b90505f7f00000000000000000000000000000000000000000000000000000000000000006001600160a01b031663313ce5676040518163ffffffff1660e01b8152600401602060405180830381865afa1580156125ad573d5f803e3d5ffd5b505050506040513d601f19601f820116820180604052508101906125d19190613a48565b6125dc90600a613a3a565b90505f6125e98285613870565b90505f6125f68985613870565b90508082111561261d5761260a838261389b565b94506126168386613870565b9150612636565b612627898361389b565b93506126338985613870565b90505b82620f4240876080015162ffffff168d6126509190613870565b61265a919061389b565b6126649190613870565b82101561269157620f4240866080015162ffffff168c6126849190613870565b61268e919061389b565b94505b88620f42408760a0015162ffffff168c6126ab9190613870565b6126b5919061389b565b6126bf9190613870565b8110156126ec57620f42408660a0015162ffffff168b6126df9190613870565b6126e9919061389b565b93505b8660ff168860ff161115612720576127048789613b40565b61270f90600a613a3a565b612719908561389b565b9350612750565b8660ff168860ff161015612750576127388888613b40565b61274390600a613a3a565b61274d908661389b565b94505b505050965096945050505050565b5f6207a11f19627fffff85160181831561277857815f0391505b81620f4240019050611e10620f4240866127929190613870565b82810615158616908390040190565b5f67ffffffffffffffff8211156127d757604080516306dfcc6560e41b81526004810191909152602481018390526044016113e5565b5090565b306001600160a01b037f000000000000000000000000000000000000000000000000000000000000000016148061287457507f00000000000000000000000000000000000000000000000000000000000000006001600160a01b03166128687f360894a13ba1a3210667c828492db98dca3e2076cc3735a920a3ca505d382bbc546001600160a01b031690565b6001600160a01b031614155b156113af5760405163703e46dd60e11b815260040160405180910390fd5b6113f7612186565b816001600160a01b03166352d1902d6040518163ffffffff1660e01b8152600401602060405180830381865afa9250505080156128f4575060408051601f3d908101601f191682019092526128f191810190613b59565b60015b61291c57604051634c9c8ce360e01b81526001600160a01b03831660048201526024016113e5565b7f360894a13ba1a3210667c828492db98dca3e2076cc3735a920a3ca505d382bbc8114612978576040517faa1d49a4000000000000000000000000000000000000000000000000000000008152600481018290526024016113e5565b6129828383612e1f565b505050565b306001600160a01b037f000000000000000000000000000000000000000000000000000000000000000016146113af5760405163703e46dd60e11b815260040160405180910390fd5b6001805473ffffffffffffffffffffffffffffffffffffffff191690556113f781612e74565b5f612a0082612ed0565b815f600282900b8113612a135781612a1c565b612a1c826138e1565b62ffffff8116915060011615612a40576bfff97272373d413259a469909250612a48565b600160601b92505b6002811615612a675760606bfff2e50f5f656932ef12357c8402901c92505b6004811615612a865760606bffe5caca7e10e4e61c3624ea8402901c92505b6008811615612aa55760606bffcb9843d60f6159c9db58838402901c92505b6010811615612ac45760606bff973b41fa98c081472e68968402901c92505b6020811615612ae35760606bff2ea16466c96a3843ec78b38402901c92505b6040811615612b025760606bfe5dee046a99a2a811c461f18402901c92505b6080811615612b215760606bfcbe86c7900a88aedcffc83b8402901c92505b610100811615612b415760606bf987a7253ac413176f2b074c8402901c92505b610200811615612b615760606bf3392b0822b70005940c7a398402901c92505b610400811615612b815760606be7159475a2c29b7443b29c7f8402901c92505b610800811615612ba15760606bd097f3bdfd2022b8845ad8f78402901c92505b611000811615612bc15760606ba9f746462d870fdf8a65dc1f8402901c92505b612000811615612be15760606b70d869a156d2a1b890bb3df68402901c92505b614000811615612c015760606b31be135f97d08fd9812315058402901c92505b618000811615612c215760606b09aa508b5b7a84e1c677de548402901c92505b62010000811615612c415760606a5d6af8dedb81196699c3298402901c92505b62020000811615612c60576060692216e584f5fa1ea926048402901c92505b62040000811615612c7d57606067048a170391f7dc428402901c92505b5f8260020b1315612cae57612cab83780100000000000000000000000000000000000000000000000061389b565b92505b5050919050565b5f6207a11f19627fffff851601600281900b82128281612cd757825f03612cd9565b825b62ffffff1690505f612d12612cee8389613870565b620f424088612d04578581830615151691040190565b808206151586151691040190565b905082612d2757612d2281613b70565b612d29565b805b98975050505050505050565b5f838302815f1985870982811083820303915050805f03612d6957838281612d5f57612d5f613887565b0492505050612de5565b808411612d8057612d806003851502601118612f2c565b5f848688095f868103871696879004966002600389028118808a02820302808a02820302808a02820302808a02820302808a02820302808a02909103029181900381900460010186841190950394909402919094039290920491909117919091029150505b9392505050565b5f6001600160b01b038211156127d7576040516306dfcc6560e41b815260b06004820152602481018390526044016113e5565b612e2882612f3d565b6040516001600160a01b038316907fbc7cd75a20ee27fd9adebab32041f755214dbc6bffa90cc0225b39da2e5c2d3b905f90a2805115612e6c576129828282612fc0565b61130d613032565b5f80546001600160a01b0383811673ffffffffffffffffffffffffffffffffffffffff19831681178455604051919092169283917f8be0079c531659141344cd1fd0a4f28419497f9722a3daafe3b4186f6b6457e09190a35050565b6207ffff600282900b1380612ef55750612eec6207ffff6138e1565b60020b8160020b125b156113f7576040517fce8ef7fc00000000000000000000000000000000000000000000000000000000815260040160405180910390fd5b634e487b715f52806020526024601cfd5b806001600160a01b03163b5f03612f7257604051634c9c8ce360e01b81526001600160a01b03821660048201526024016113e5565b7f360894a13ba1a3210667c828492db98dca3e2076cc3735a920a3ca505d382bbc805473ffffffffffffffffffffffffffffffffffffffff19166001600160a01b0392909216919091179055565b60605f80846001600160a01b031684604051612fdc9190613ba6565b5f60405180830381855af49150503d805f8114613014576040519150601f19603f3d011682016040523d82523d5f602084013e613019565b606091505b509150915061302985838361306a565b95945050505050565b34156113af576040517fb398979f00000000000000000000000000000000000000000000000000000000815260040160405180910390fd5b60608261307f5761307a826130df565b612de5565b815115801561309657506001600160a01b0384163b155b156130d8576040517f9996b3150000000000000000000000000000000000000000000000000000000081526001600160a01b03851660048201526024016113e5565b5080612de5565b8051156130ef5780518082602001fd5b6040517fd6bda27500000000000000000000000000000000000000000000000000000000815260040160405180910390fd5b634e487b7160e01b5f52604160045260245ffd5b604051610100810167ffffffffffffffff8111828210171561315957613159613121565b60405290565b6040805190810167ffffffffffffffff8111828210171561315957613159613121565b604051601f8201601f1916810167ffffffffffffffff811182821017156131ab576131ab613121565b604052919050565b62ffffff811681146113f7575f80fd5b80356131ce816131b3565b919050565b5f808284036101208112156131e6575f80fd5b8335925061010080601f19830112156131fd575f80fd5b613205613135565b91506020850135613215816131b3565b8252613223604086016131c3565b6020830152613234606086016131c3565b6040830152613245608086016131c3565b606083015261325660a086016131c3565b608083015261326760c086016131c3565b60a083015261327860e086016131c3565b60c08301526132888186016131c3565b60e083015250809150509250929050565b5f602082840312156132a9575f80fd5b5035919050565b5f815180845260208085019450602084015f5b838110156132f7578151805160020b885283015167ffffffffffffffff1683880152604090960195908201906001016132c3565b509495945050505050565b604081525f61331460408301856132b0565b828103602084015261302981856132b0565b6001600160a01b03811681146113f7575f80fd5b5f67ffffffffffffffff82111561335357613353613121565b5060051b60200190565b8035600281900b81146131ce575f80fd5b67ffffffffffffffff811681146113f7575f80fd5b5f82601f830112613392575f80fd5b813560206133a76133a28361333a565b613182565b82815260069290921b840181019181810190868411156133c5575f80fd5b8286015b8481101561341257604081890312156133e0575f80fd5b6133e861315f565b6133f18261335d565b8152848201356134008161336e565b818601528352918301916040016133c9565b509695505050505050565b5f805f805f8060c08789031215613432575f80fd5b863561343d81613326565b955060208701359450604087013567ffffffffffffffff80821115613460575f80fd5b61346c8a838b01613383565b95506060890135915080821115613481575f80fd5b5061348e89828a01613383565b9350506080870135915060a087013590509295509295509295565b5f80604083850312156134ba575f80fd5b82356134c581613326565b915060208381013567ffffffffffffffff808211156134e2575f80fd5b818601915086601f8301126134f5575f80fd5b81358181111561350757613507613121565b613519601f8201601f19168501613182565b9150808252878482850101111561352e575f80fd5b80848401858401375f848284010152508093505050509250929050565b5f806040838503121561355c575f80fd5b823561356781613326565b91506020830135801515811461357b575f80fd5b809150509250929050565b5f60208284031215613596575f80fd5b8135612de581613326565b5f6101008201905062ffffff8084511683528060208501511660208401528060408501511660408401528060608501511660608401528060808501511660808401528060a08501511660a08401525060c083015161360660c084018262ffffff169052565b5060e083015161361d60e084018262ffffff169052565b5092915050565b5f805f805f60a08688031215613638575f80fd5b853594506020860135935061364f6040870161335d565b925061365d6060870161335d565b9150608086013561366d816131b3565b809150509295509295909350565b5f805f806080858703121561368e575f80fd5b843561369981613326565b966020860135965060408601359560600135945092505050565b602081525f82518060208401528060208501604085015e5f604082850101526040601f19601f83011684010191505092915050565b80516001600160c01b03811681146131ce575f80fd5b5f806040838503121561370f575f80fd5b613718836136e8565b9150613726602084016136e8565b90509250929050565b5f60c0828403121561373f575f80fd5b60405160c0810181811067ffffffffffffffff8211171561376257613762613121565b604052825161377081613326565b815260208301516137808161336e565b6020820152604083015161379381613326565b604082015260608301516137a6816131b3565b606082015260808301516137b981613326565b608082015260a08301516137cc816131b3565b60a08201529392505050565b5f606082840312156137e8575f80fd5b6040516060810181811067ffffffffffffffff8211171561380b5761380b613121565b80604052508091508251815260208301516020820152604083015160408201525092915050565b5f8060c08385031215613843575f80fd5b61384d84846137d8565b915061372684606085016137d8565b634e487b7160e01b5f52601160045260245ffd5b808202811582820484141761249a5761249a61385c565b634e487b7160e01b5f52601260045260245ffd5b5f826138b557634e487b7160e01b5f52601260045260245ffd5b500490565b8082018082111561249a5761249a61385c565b634e487b7160e01b5f52603260045260245ffd5b5f8160020b627fffff1981036138f9576138f961385c565b5f0392915050565b8181038181111561249a5761249a61385c565b8082018281125f8312801582168215821617156139335761393361385c565b505092915050565b8181035f83128015838313168383128216171561361d5761361d61385c565b600181815b8085111561399457815f190482111561397a5761397a61385c565b8085161561398757918102915b93841c939080029061395f565b509250929050565b5f826139aa5750600161249a565b816139b657505f61249a565b81600181146139cc57600281146139d6576139f2565b600191505061249a565b60ff8411156139e7576139e761385c565b50506001821b61249a565b5060208310610133831016604e8410600b8410161715613a15575081810a61249a565b613a1f838361395a565b805f1904821115613a3257613a3261385c565b029392505050565b5f612de560ff84168361399c565b5f60208284031215613a58575f80fd5b815160ff81168114612de5575f80fd5b602080825282518282018190525f9190848201906040850190845b81811015613aa85783516001600160a01b031683529284019291840191600101613a83565b50909695505050505050565b5f6020808385031215613ac5575f80fd5b825167ffffffffffffffff811115613adb575f80fd5b8301601f81018513613aeb575f80fd5b8051613af96133a28261333a565b81815260059190911b82018301908381019087831115613b17575f80fd5b928401925b82841015613b3557835182529284019290840190613b1c565b979650505050505050565b60ff828116828216039081111561249a5761249a61385c565b5f60208284031215613b69575f80fd5b5051919050565b5f7f80000000000000000000000000000000000000000000000000000000000000008203613ba057613ba061385c565b505f0390565b5f82518060208501845e5f92019182525091905056fea2646970667358221220ee0c7e0424a225701a18bdd1ad8f52e14d0b69957b8f7ed57a95286a85cea23c64736f6c63430008190033",
  "devdoc": {
    "errors": {
      "AddressEmptyCode(address)": [
        {
          "details": "There's no code at `target` (it is not a contract)."
        }
      ],
      "ERC1967InvalidImplementation(address)": [
        {
          "details": "The `implementation` of the proxy is invalid."
        }
      ],
      "ERC1967NonPayable()": [
        {
          "details": "An upgrade function sees `msg.value > 0` that may be lost."
        }
      ],
      "FailedCall()": [
        {
          "details": "A call to an address target failed. The target may have reverted."
        }
      ],
      "InvalidInitialization()": [
        {
          "details": "The contract is already initialized."
        }
      ],
      "NotInitializing()": [
        {
          "details": "The contract is not initializing."
        }
      ],
      "OwnableInvalidOwner(address)": [
        {
          "details": "The owner is not a valid owner account. (eg. `address(0)`)"
        }
      ],
      "OwnableUnauthorizedAccount(address)": [
        {
          "details": "The caller account is not authorized to perform an operation."
        }
      ],
      "SafeCastOverflowedUintDowncast(uint8,uint256)": [
        {
          "details": "Value doesn't fit in an uint of `bits` size."
        }
      ],
      "UUPSUnauthorizedCallContext()": [
        {
          "details": "The call is from an unauthorized context."
        }
      ],
      "UUPSUnsupportedProxiableUUID(bytes32)": [
        {
          "details": "The storage `slot` is unsupported as a UUID."
        }
      ]
    },
    "events": {
      "Initialized(uint64)": {
        "details": "Triggered when the contract has been initialized or reinitialized."
      },
      "Upgraded(address)": {
        "details": "Emitted when the implementation is upgraded."
      }
    },
    "kind": "dev",
    "methods": {
      "acceptOwnership()": {
        "details": "The new owner accepts the ownership transfer."
      },
      "computeOrders(bytes32)": {
        "details": "Clears pool orders if an error occurs and retains current orders if the list is empty.",
        "params": {
          "key": "The key of the pool."
        },
        "returns": {
          "ordersA": "The orders for the first token.",
          "ordersB": "The orders for the second token."
        }
      },
      "getConfig(bytes32)": {
        "params": {
          "key": "A unique identifier for the position or pool."
        },
        "returns": {
          "_0": "The current Config struct associated with the key."
        }
      },
      "getLastAmount(bytes32)": {
        "params": {
          "key": "A unique identifier for the position or pool."
        },
        "returns": {
          "_0": "(uint256, uint256) representing the two amounts (likely token A / token B)."
        }
      },
      "getPosition(bytes32)": {
        "params": {
          "key": "A unique identifier for the position or pool."
        },
        "returns": {
          "_0": "A Position struct containing paused state, oracle price, rate, tickA, and tickB."
        }
      },
      "isOraclePriceValid(bytes32)": {
        "params": {
          "key": "A unique identifier for the position or pool."
        },
        "returns": {
          "_0": "True if the oracle price is valid, otherwise false."
        }
      },
      "isPaused(bytes32)": {
        "params": {
          "key": "A unique identifier for the position or pool."
        },
        "returns": {
          "_0": "True if paused, false otherwise."
        }
      },
      "owner()": {
        "details": "Returns the address of the current owner."
      },
      "pause(bytes32)": {
        "params": {
          "key": "A unique identifier for the position or pool."
        }
      },
      "pendingOwner()": {
        "details": "Returns the address of the pending owner."
      },
      "proxiableUUID()": {
        "details": "Implementation of the ERC-1822 {proxiableUUID} function. This returns the storage slot used by the implementation. It is used to validate the implementation's compatibility when performing an upgrade. IMPORTANT: A proxy pointing at a proxiable contract should not be considered proxiable itself, because this risks bricking a proxy that upgrades to it, by delegating to itself until out of gas. Thus it is critical that this function revert if invoked through a proxy. This is guaranteed by the `notDelegated` modifier."
      },
      "renounceOwnership()": {
        "details": "Leaves the contract without owner. It will not be possible to call `onlyOwner` functions. Can only be called by the current owner. NOTE: Renouncing ownership will leave the contract without an owner, thereby disabling any functionality that is only available to the owner."
      },
      "setConfig(bytes32,(uint24,uint24,uint24,uint24,uint24,uint24,uint24,uint24))": {
        "params": {
          "config": "The new configuration parameters (thresholds, rates, etc.).",
          "key": "A unique identifier for the position or pool."
        }
      },
      "setOperator(address,bool)": {
        "params": {
          "operator": "The address whose operator status is being updated.",
          "status": "True to grant operator privileges, false to revoke."
        }
      },
      "transferOwnership(address)": {
        "details": "Starts the ownership transfer of the contract to a new account. Replaces the pending transfer if there is one. Can only be called by the current owner. Setting `newOwner` to the zero address is allowed; this can be used to cancel an initiated ownership transfer."
      },
      "unpause(bytes32)": {
        "params": {
          "key": "A unique identifier for the position or pool."
        }
      },
      "updatePosition(bytes32,uint256,int24,int24,uint24)": {
        "params": {
          "key": "A unique identifier for the position or pool.",
          "oraclePrice": "The new oracle price used to guide the strategy.",
          "rate": "The multiplier applied at the final step of order amount calculation.",
          "tickA": "The updated tick parameters for side A of the orderbook.",
          "tickB": "The updated tick parameters for side B of the orderbook."
        }
      },
      "upgradeToAndCall(address,bytes)": {
        "custom:oz-upgrades-unsafe-allow-reachable": "delegatecall",
        "details": "Upgrade the implementation of the proxy to `newImplementation`, and subsequently execute the function call encoded in `data`. Calls {_authorizeUpgrade}. Emits an {Upgraded} event."
      }
    },
    "stateVariables": {
      "isOperator": {
        "params": {
          "operator": "The address to query."
        },
        "return": "True if the address is an operator, otherwise false.",
        "returns": {
          "_0": "True if the address is an operator, otherwise false."
        }
      }
    },
    "version": 1
  },
  "userdoc": {
    "kind": "user",
    "methods": {
      "bookManager()": {
        "notice": "Returns the IBookManager instance controlling the underlying orderbooks."
      },
      "computeOrders(bytes32)": {
        "notice": "Retrieves the orders for a specified key."
      },
      "getConfig(bytes32)": {
        "notice": "Fetches the configuration (Config struct) for a specified key."
      },
      "getLastAmount(bytes32)": {
        "notice": "Returns two amounts recorded in the last operation for a specified key."
      },
      "getPosition(bytes32)": {
        "notice": "Retrieves the position (Position struct) for a specified key."
      },
      "isOperator(address)": {
        "notice": "Checks if a given address is granted operator privileges."
      },
      "isOraclePriceValid(bytes32)": {
        "notice": "Checks if the oracle price for the specified key is valid according to the strategy's criteria."
      },
      "isPaused(bytes32)": {
        "notice": "Queries whether the position for a specified key is paused."
      },
      "pause(bytes32)": {
        "notice": "Pauses the position corresponding to the given key, preventing further updates or orders."
      },
      "referenceOracle()": {
        "notice": "Returns the reference IOracle contract used by this strategy."
      },
      "setConfig(bytes32,(uint24,uint24,uint24,uint24,uint24,uint24,uint24,uint24))": {
        "notice": "Updates the configuration settings for the specified key."
      },
      "setOperator(address,bool)": {
        "notice": "Assigns or revokes operator permissions for a given address."
      },
      "unpause(bytes32)": {
        "notice": "Unpauses the position for the given key, allowing normal strategy operations to resume."
      },
      "updatePosition(bytes32,uint256,int24,int24,uint24)": {
        "notice": "Updates the position parameters based on a newly fetched oracle price and tick ranges."
      }
    },
    "version": 1
  },
  "storageLayout": {
    "storage": [
      {
        "astId": 8,
        "contract": "src/SimpleOracleStrategy.sol:SimpleOracleStrategy",
        "label": "_owner",
        "offset": 0,
        "slot": "0",
        "type": "t_address"
      },
      {
        "astId": 156,
        "contract": "src/SimpleOracleStrategy.sol:SimpleOracleStrategy",
        "label": "_pendingOwner",
        "offset": 0,
        "slot": "1",
        "type": "t_address"
      },
      {
        "astId": 12196,
        "contract": "src/SimpleOracleStrategy.sol:SimpleOracleStrategy",
        "label": "isOperator",
        "offset": 0,
        "slot": "2",
        "type": "t_mapping(t_address,t_bool)"
      },
      {
        "astId": 12201,
        "contract": "src/SimpleOracleStrategy.sol:SimpleOracleStrategy",
        "label": "_configs",
        "offset": 0,
        "slot": "3",
        "type": "t_mapping(t_bytes32,t_struct(Config)15197_storage)"
      },
      {
        "astId": 12206,
        "contract": "src/SimpleOracleStrategy.sol:SimpleOracleStrategy",
        "label": "_positions",
        "offset": 0,
        "slot": "4",
        "type": "t_mapping(t_bytes32,t_struct(Position)15210_storage)"
      },
      {
        "astId": 12210,
        "contract": "src/SimpleOracleStrategy.sol:SimpleOracleStrategy",
        "label": "_lastAmountA",
        "offset": 0,
        "slot": "5",
        "type": "t_mapping(t_bytes32,t_uint256)"
      },
      {
        "astId": 12214,
        "contract": "src/SimpleOracleStrategy.sol:SimpleOracleStrategy",
        "label": "_lastAmountB",
        "offset": 0,
        "slot": "6",
        "type": "t_mapping(t_bytes32,t_uint256)"
      }
    ],
    "types": {
      "t_address": {
        "encoding": "inplace",
        "label": "address",
        "numberOfBytes": "20"
      },
      "t_bool": {
        "encoding": "inplace",
        "label": "bool",
        "numberOfBytes": "1"
      },
      "t_bytes32": {
        "encoding": "inplace",
        "label": "bytes32",
        "numberOfBytes": "32"
      },
      "t_mapping(t_address,t_bool)": {
        "encoding": "mapping",
        "key": "t_address",
        "label": "mapping(address => bool)",
        "numberOfBytes": "32",
        "value": "t_bool"
      },
      "t_mapping(t_bytes32,t_struct(Config)15197_storage)": {
        "encoding": "mapping",
        "key": "t_bytes32",
        "label": "mapping(bytes32 => struct ISimpleOracleStrategy.Config)",
        "numberOfBytes": "32",
        "value": "t_struct(Config)15197_storage"
      },
      "t_mapping(t_bytes32,t_struct(Position)15210_storage)": {
        "encoding": "mapping",
        "key": "t_bytes32",
        "label": "mapping(bytes32 => struct ISimpleOracleStrategy.Position)",
        "numberOfBytes": "32",
        "value": "t_struct(Position)15210_storage"
      },
      "t_mapping(t_bytes32,t_uint256)": {
        "encoding": "mapping",
        "key": "t_bytes32",
        "label": "mapping(bytes32 => uint256)",
        "numberOfBytes": "32",
        "value": "t_uint256"
      },
      "t_struct(Config)15197_storage": {
        "encoding": "inplace",
        "label": "struct ISimpleOracleStrategy.Config",
        "members": [
          {
            "astId": 15182,
            "contract": "src/SimpleOracleStrategy.sol:SimpleOracleStrategy",
            "label": "referenceThreshold",
            "offset": 0,
            "slot": "0",
            "type": "t_uint24"
          },
          {
            "astId": 15184,
            "contract": "src/SimpleOracleStrategy.sol:SimpleOracleStrategy",
            "label": "rebalanceThreshold",
            "offset": 3,
            "slot": "0",
            "type": "t_uint24"
          },
          {
            "astId": 15186,
            "contract": "src/SimpleOracleStrategy.sol:SimpleOracleStrategy",
            "label": "rateA",
            "offset": 6,
            "slot": "0",
            "type": "t_uint24"
          },
          {
            "astId": 15188,
            "contract": "src/SimpleOracleStrategy.sol:SimpleOracleStrategy",
            "label": "rateB",
            "offset": 9,
            "slot": "0",
            "type": "t_uint24"
          },
          {
            "astId": 15190,
            "contract": "src/SimpleOracleStrategy.sol:SimpleOracleStrategy",
            "label": "minRateA",
            "offset": 12,
            "slot": "0",
            "type": "t_uint24"
          },
          {
            "astId": 15192,
            "contract": "src/SimpleOracleStrategy.sol:SimpleOracleStrategy",
            "label": "minRateB",
            "offset": 15,
            "slot": "0",
            "type": "t_uint24"
          },
          {
            "astId": 15194,
            "contract": "src/SimpleOracleStrategy.sol:SimpleOracleStrategy",
            "label": "priceThresholdA",
            "offset": 18,
            "slot": "0",
            "type": "t_uint24"
          },
          {
            "astId": 15196,
            "contract": "src/SimpleOracleStrategy.sol:SimpleOracleStrategy",
            "label": "priceThresholdB",
            "offset": 21,
            "slot": "0",
            "type": "t_uint24"
          }
        ],
        "numberOfBytes": "32"
      },
      "t_struct(Position)15210_storage": {
        "encoding": "inplace",
        "label": "struct ISimpleOracleStrategy.Position",
        "members": [
          {
            "astId": 15199,
            "contract": "src/SimpleOracleStrategy.sol:SimpleOracleStrategy",
            "label": "paused",
            "offset": 0,
            "slot": "0",
            "type": "t_bool"
          },
          {
            "astId": 15201,
            "contract": "src/SimpleOracleStrategy.sol:SimpleOracleStrategy",
            "label": "oraclePrice",
            "offset": 1,
            "slot": "0",
            "type": "t_uint176"
          },
          {
            "astId": 15203,
            "contract": "src/SimpleOracleStrategy.sol:SimpleOracleStrategy",
            "label": "rate",
            "offset": 23,
            "slot": "0",
            "type": "t_uint24"
          },
          {
            "astId": 15206,
            "contract": "src/SimpleOracleStrategy.sol:SimpleOracleStrategy",
            "label": "tickA",
            "offset": 26,
            "slot": "0",
            "type": "t_userDefinedValueType(Tick)8319"
          },
          {
            "astId": 15209,
            "contract": "src/SimpleOracleStrategy.sol:SimpleOracleStrategy",
            "label": "tickB",
            "offset": 29,
            "slot": "0",
            "type": "t_userDefinedValueType(Tick)8319"
          }
        ],
        "numberOfBytes": "32"
      },
      "t_uint176": {
        "encoding": "inplace",
        "label": "uint176",
        "numberOfBytes": "22"
      },
      "t_uint24": {
        "encoding": "inplace",
        "label": "uint24",
        "numberOfBytes": "3"
      },
      "t_uint256": {
        "encoding": "inplace",
        "label": "uint256",
        "numberOfBytes": "32"
      },
      "t_userDefinedValueType(Tick)8319": {
        "encoding": "inplace",
        "label": "Tick",
        "numberOfBytes": "3"
      }
    }
  }
}