{
  "address": "0xaD389AF4Ca8d0595cA52Dc43EaE516E116170eFF",
  "abi": [
    {
      "inputs": [
        {
          "internalType": "address",
          "name": "sequencerOracle_",
          "type": "address"
        },
        {
          "internalType": "uint256",
          "name": "timeout_",
          "type": "uint256"
        },
        {
          "internalType": "uint256",
          "name": "gracePeriod_",
          "type": "uint256"
        },
        {
          "internalType": "address",
          "name": "initialOwner",
          "type": "address"
        }
      ],
      "stateMutability": "nonpayable",
      "type": "constructor"
    },
    {
      "inputs": [],
      "name": "DifferentPrecision",
      "type": "error"
    },
    {
      "inputs": [],
      "name": "InvalidGracePeriod",
      "type": "error"
    },
    {
      "inputs": [],
      "name": "InvalidTimeout",
      "type": "error"
    },
    {
      "inputs": [],
      "name": "LengthMismatch",
      "type": "error"
    },
    {
      "inputs": [
        {
          "internalType": "address",
          "name": "owner",
          "type": "address"
        }
      ],
      "name": "OwnableInvalidOwner",
      "type": "error"
    },
    {
      "inputs": [
        {
          "internalType": "address",
          "name": "account",
          "type": "address"
        }
      ],
      "name": "OwnableUnauthorizedAccount",
      "type": "error"
    },
    {
      "anonymous": false,
      "inputs": [
        {
          "indexed": true,
          "internalType": "address",
          "name": "previousOwner",
          "type": "address"
        },
        {
          "indexed": true,
          "internalType": "address",
          "name": "newOwner",
          "type": "address"
        }
      ],
      "name": "OwnershipTransferStarted",
      "type": "event"
    },
    {
      "anonymous": false,
      "inputs": [
        {
          "indexed": true,
          "internalType": "address",
          "name": "previousOwner",
          "type": "address"
        },
        {
          "indexed": true,
          "internalType": "address",
          "name": "newOwner",
          "type": "address"
        }
      ],
      "name": "OwnershipTransferred",
      "type": "event"
    },
    {
      "anonymous": false,
      "inputs": [
        {
          "indexed": true,
          "internalType": "address",
          "name": "newFallbackOracle",
          "type": "address"
        }
      ],
      "name": "SetFallbackOracle",
      "type": "event"
    },
    {
      "anonymous": false,
      "inputs": [
        {
          "indexed": true,
          "internalType": "address",
          "name": "asset",
          "type": "address"
        },
        {
          "indexed": false,
          "internalType": "address[]",
          "name": "feeds",
          "type": "address[]"
        }
      ],
      "name": "SetFeed",
      "type": "event"
    },
    {
      "anonymous": false,
      "inputs": [
        {
          "indexed": false,
          "internalType": "uint256",
          "name": "newGracePeriod",
          "type": "uint256"
        }
      ],
      "name": "SetGracePeriod",
      "type": "event"
    },
    {
      "anonymous": false,
      "inputs": [
        {
          "indexed": true,
          "internalType": "address",
          "name": "newSequencerOracle",
          "type": "address"
        }
      ],
      "name": "SetSequencerOracle",
      "type": "event"
    },
    {
      "anonymous": false,
      "inputs": [
        {
          "indexed": false,
          "internalType": "uint256",
          "name": "newTimeout",
          "type": "uint256"
        }
      ],
      "name": "SetTimeout",
      "type": "event"
    },
    {
      "inputs": [],
      "name": "acceptOwnership",
      "outputs": [],
      "stateMutability": "nonpayable",
      "type": "function"
    },
    {
      "inputs": [],
      "name": "decimals",
      "outputs": [
        {
          "internalType": "uint8",
          "name": "",
          "type": "uint8"
        }
      ],
      "stateMutability": "pure",
      "type": "function"
    },
    {
      "inputs": [],
      "name": "fallbackOracle",
      "outputs": [
        {
          "internalType": "address",
          "name": "",
          "type": "address"
        }
      ],
      "stateMutability": "view",
      "type": "function"
    },
    {
      "inputs": [
        {
          "internalType": "address",
          "name": "asset",
          "type": "address"
        }
      ],
      "name": "getAssetPrice",
      "outputs": [
        {
          "internalType": "uint256",
          "name": "",
          "type": "uint256"
        }
      ],
      "stateMutability": "view",
      "type": "function"
    },
    {
      "inputs": [
        {
          "internalType": "address[]",
          "name": "assets",
          "type": "address[]"
        }
      ],
      "name": "getAssetsPrices",
      "outputs": [
        {
          "internalType": "uint256[]",
          "name": "prices",
          "type": "uint256[]"
        }
      ],
      "stateMutability": "view",
      "type": "function"
    },
    {
      "inputs": [
        {
          "internalType": "address",
          "name": "asset",
          "type": "address"
        }
      ],
      "name": "getFeeds",
      "outputs": [
        {
          "internalType": "address[]",
          "name": "",
          "type": "address[]"
        }
      ],
      "stateMutability": "view",
      "type": "function"
    },
    {
      "inputs": [],
      "name": "gracePeriod",
      "outputs": [
        {
          "internalType": "uint256",
          "name": "",
          "type": "uint256"
        }
      ],
      "stateMutability": "view",
      "type": "function"
    },
    {
      "inputs": [],
      "name": "isSequencerValid",
      "outputs": [
        {
          "internalType": "bool",
          "name": "",
          "type": "bool"
        }
      ],
      "stateMutability": "view",
      "type": "function"
    },
    {
      "inputs": [],
      "name": "owner",
      "outputs": [
        {
          "internalType": "address",
          "name": "",
          "type": "address"
        }
      ],
      "stateMutability": "view",
      "type": "function"
    },
    {
      "inputs": [],
      "name": "pendingOwner",
      "outputs": [
        {
          "internalType": "address",
          "name": "",
          "type": "address"
        }
      ],
      "stateMutability": "view",
      "type": "function"
    },
    {
      "inputs": [],
      "name": "renounceOwnership",
      "outputs": [],
      "stateMutability": "nonpayable",
      "type": "function"
    },
    {
      "inputs": [],
      "name": "sequencerOracle",
      "outputs": [
        {
          "internalType": "address",
          "name": "",
          "type": "address"
        }
      ],
      "stateMutability": "view",
      "type": "function"
    },
    {
      "inputs": [
        {
          "internalType": "address",
          "name": "newFallbackOracle",
          "type": "address"
        }
      ],
      "name": "setFallbackOracle",
      "outputs": [],
      "stateMutability": "nonpayable",
      "type": "function"
    },
    {
      "inputs": [
        {
          "internalType": "address[]",
          "name": "assets",
          "type": "address[]"
        },
        {
          "internalType": "address[][]",
          "name": "feeds",
          "type": "address[][]"
        }
      ],
      "name": "setFeeds",
      "outputs": [],
      "stateMutability": "nonpayable",
      "type": "function"
    },
    {
      "inputs": [
        {
          "internalType": "uint256",
          "name": "newGracePeriod",
          "type": "uint256"
        }
      ],
      "name": "setGracePeriod",
      "outputs": [],
      "stateMutability": "nonpayable",
      "type": "function"
    },
    {
      "inputs": [
        {
          "internalType": "address",
          "name": "newSequencerOracle",
          "type": "address"
        }
      ],
      "name": "setSequencerOracle",
      "outputs": [],
      "stateMutability": "nonpayable",
      "type": "function"
    },
    {
      "inputs": [
        {
          "internalType": "uint256",
          "name": "newTimeout",
          "type": "uint256"
        }
      ],
      "name": "setTimeout",
      "outputs": [],
      "stateMutability": "nonpayable",
      "type": "function"
    },
    {
      "inputs": [],
      "name": "timeout",
      "outputs": [
        {
          "internalType": "uint256",
          "name": "",
          "type": "uint256"
        }
      ],
      "stateMutability": "view",
      "type": "function"
    },
    {
      "inputs": [
        {
          "internalType": "address",
          "name": "newOwner",
          "type": "address"
        }
      ],
      "name": "transferOwnership",
      "outputs": [],
      "stateMutability": "nonpayable",
      "type": "function"
    }
  ],
  "transactionHash": "0x6d7c8ee82a8c2208a96eca65f664146f6ae764b2a3a14994d1cd4d7c0091a7fe",
  "args": [
    "0x0000000000000000000000000000000000000000",
    86400,
    3600,
    "0x5F79EE8f8fA862E98201120d83c4eC39D9468D49"
  ],
  "numDeployments": 1,
  "solcInputHash": "bb08b08c607a06add251fc51587fdadf",
  "bytecode": "0x608060405234801561000f575f80fd5b5060405161155238038061155283398101604081905261002e9161022a565b806001600160a01b03811661005c57604051631e4fbdf760e01b81525f600482015260240160405180910390fd5b6100658161008a565b5061006f846100a6565b610078836100ef565b6100818261015b565b5050505061026d565b600180546001600160a01b03191690556100a3816101c0565b50565b600380546001600160a01b0319166001600160a01b0383169081179091556040517f73ae4ce26eec2f4ea96b861b67192be67911288f8eb274c2fa6630e8deefab8e905f90a250565b6104b081108061010157506201518081115b1561011f57604051631ffb86f160e21b815260040160405180910390fd5b60028190556040518181527f9a3851f0de50087a4045a25c045b5b3db04b32773b44996506ff6dca26c783af906020015b60405180910390a150565b6104b081108061016d57506201518081115b1561018b5760405163d7c43e0f60e01b815260040160405180910390fd5b60048190556040518181527f848ba7852320e491d84ddc22f1f12fe48672aa22757fc4452703c9046d9982d790602001610150565b5f80546001600160a01b038381166001600160a01b0319831681178455604051919092169283917f8be0079c531659141344cd1fd0a4f28419497f9722a3daafe3b4186f6b6457e09190a35050565b80516001600160a01b0381168114610225575f80fd5b919050565b5f805f806080858703121561023d575f80fd5b6102468561020f565b935060208501519250604085015191506102626060860161020f565b905092959194509250565b6112d88061027a5f395ff3fe608060405234801561000f575f80fd5b5060043610610149575f3560e01c80639d23d9f2116100c7578063c58a34cc1161007d578063f0aef31c11610063578063f0aef31c14610296578063f2f65960146102a9578063f2fde38b146102bc575f80fd5b8063c58a34cc14610272578063e30c397814610285575f80fd5b8063ac77f572116100ad578063ac77f5721461022c578063acbb4c1e1461024c578063b3596f071461025f575f80fd5b80639d23d9f214610203578063a06db7dc14610223575f80fd5b8063715018a61161011c57806379ba50971161010257806379ba5097146101d85780638da5cb5b146101e05780638fadac78146101f0575f80fd5b8063715018a6146101b85780637194ed42146101c0575f80fd5b8063170aee731461014d578063313ce56714610162578063629838e51461017657806370dea79a146101a1575b5f80fd5b61016061015b366004610dca565b6102cf565b005b604051600881526020015b60405180910390f35b600554610189906001600160a01b031681565b6040516001600160a01b03909116815260200161016d565b6101aa60025481565b60405190815260200161016d565b6101606103bf565b6101c86103d2565b604051901515815260200161016d565b6101606103e0565b5f546001600160a01b0316610189565b6101606101fe366004610e2b565b610429565b610216610211366004610ea6565b61066d565b60405161016d9190610f66565b6101aa60045481565b61023f61023a366004610dca565b61070d565b60405161016d9190610fa9565b600354610189906001600160a01b031681565b6101aa61026d366004610dca565b610780565b610160610280366004610fe9565b610a77565b6001546001600160a01b0316610189565b6101606102a4366004610dca565b610a88565b6101606102b7366004610fe9565b610a99565b6101606102ca366004610dca565b610aaa565b6102d7610b1a565b600860ff16816001600160a01b031663313ce5676040518163ffffffff1660e01b8152600401602060405180830381865afa158015610318573d5f803e3d5ffd5b505050506040513d601f19601f8201168201806040525081019061033c9190611000565b60ff1614610376576040517f695ccbf600000000000000000000000000000000000000000000000000000000815260040160405180910390fd5b600580546001600160a01b0319166001600160a01b0383169081179091556040517f9a248ffd42eb7f1580b27272ef0a5911b2835eb6fb9951d6fd1b6e3264b9e6e0905f90a250565b6103c7610b1a565b6103d05f610b46565b565b5f6103db610b5f565b905090565b60015433906001600160a01b0316811461041d5760405163118cdaa760e01b81526001600160a01b03821660048201526024015b60405180910390fd5b61042681610b46565b50565b610431610b1a565b82811461046a576040517fff633a3800000000000000000000000000000000000000000000000000000000815260040160405180910390fd5b5f5b838110156106665782828281811061048657610486611020565b90506020028101906104989190611034565b90505f036104d2576040517fff633a3800000000000000000000000000000000000000000000000000000000815260040160405180910390fd5b5f60065f8787858181106104e8576104e8611020565b90506020020160208101906104fd9190610dca565b6001600160a01b03166001600160a01b031681526020019081526020015f2090505f81555f5b84848481811061053557610535611020565b90506020028101906105479190611034565b90508110156105d1578185858581811061056357610563611020565b90506020028101906105759190611034565b8381811061058557610585611020565b905060200201602081019061059a9190610dca565b8154600180820184555f93845260209093200180546001600160a01b0319166001600160a01b039290921691909117905501610523565b508585838181106105e4576105e4611020565b90506020020160208101906105f99190610dca565b6001600160a01b03167fcbf64f4858c251e8a5e4b58489643fd6e0255b237e6e022318293b7fc43bb4f885858581811061063557610635611020565b90506020028101906106479190611034565b60405161065592919061107a565b60405180910390a25060010161046c565b5050505050565b6060815167ffffffffffffffff81111561068957610689610e92565b6040519080825280602002602001820160405280156106b2578160200160208202803683370190505b5090505f5b8251811015610707576106e28382815181106106d5576106d5611020565b6020026020010151610780565b8282815181106106f4576106f4611020565b60209081029190910101526001016106b7565b50919050565b6001600160a01b0381165f9081526006602090815260409182902080548351818402810184019094528084526060939283018282801561077457602002820191905f5260205f20905b81546001600160a01b03168152600190910190602001808311610756575b50505050509050919050565b6001600160a01b0381165f908152600660209081526040808320805482518185028101850190935280835284938301828280156107e457602002820191905f5260205f20905b81546001600160a01b031681526001909101906020018083116107c6575b5050505050905080515f036108665760055460405163b3596f0760e01b81526001600160a01b0385811660048301529091169063b3596f0790602401602060405180830381865afa15801561083b573d5f803e3d5ffd5b505050506040513d601f19601f8201168201806040525081019061085f91906110c5565b9392505050565b6305f5e1005f5b8251811015610a6f5782818151811061088857610888611020565b60200260200101516001600160a01b031663feaf968c6040518163ffffffff1660e01b815260040160a060405180830381865afa9250505080156108e9575060408051601f3d908101601f191682019092526108e6918101906110f5565b60015b156109f25769ffffffffffffffffffff85161580159061090957505f8412155b80156109155750428211155b801561092d57506002546109299083611155565b4211155b801561093c575061093c610b5f565b156109ec575f88878151811061095457610954611020565b60200260200101516001600160a01b031663313ce5676040518163ffffffff1660e01b8152600401602060405180830381865afa158015610997573d5f803e3d5ffd5b505050506040513d601f19601f820116820180604052508101906109bb9190611000565b60ff1690506109cb81600a61124e565b6109d5868a611259565b6109df9190611270565b9750505050505050610a67565b50505050505b60055460405163b3596f0760e01b81526001600160a01b0387811660048301529091169063b3596f0790602401602060405180830381865afa158015610a3a573d5f803e3d5ffd5b505050506040513d601f19601f82011682018060405250810190610a5e91906110c5565b95945050505050565b60010161086d565b509392505050565b610a7f610b1a565b61042681610c14565b610a90610b1a565b61042681610c99565b610aa1610b1a565b61042681610ce2565b610ab2610b1a565b600180546001600160a01b0383166001600160a01b03199091168117909155610ae25f546001600160a01b031690565b6001600160a01b03167f38d16b8cac22d99fc7c124b9cd0de2d3fa1faef420bfe791d8c362d765e2270060405160405180910390a350565b5f546001600160a01b031633146103d05760405163118cdaa760e01b8152336004820152602401610414565b600180546001600160a01b031916905561042681610d60565b6003545f906001600160a01b0316610b775750600190565b5f8060035f9054906101000a90046001600160a01b03166001600160a01b031663feaf968c6040518163ffffffff1660e01b815260040160a060405180830381865afa158015610bc9573d5f803e3d5ffd5b505050506040513d601f19601f82011682018060405250810190610bed91906110f5565b50935050925050815f148015610c0d5750600454610c0b824261128f565b115b9250505090565b6104b0811080610c2657506201518081115b15610c5d576040517f7fee1bc400000000000000000000000000000000000000000000000000000000815260040160405180910390fd5b60028190556040518181527f9a3851f0de50087a4045a25c045b5b3db04b32773b44996506ff6dca26c783af906020015b60405180910390a150565b600380546001600160a01b0319166001600160a01b0383169081179091556040517f73ae4ce26eec2f4ea96b861b67192be67911288f8eb274c2fa6630e8deefab8e905f90a250565b6104b0811080610cf457506201518081115b15610d2b576040517fd7c43e0f00000000000000000000000000000000000000000000000000000000815260040160405180910390fd5b60048190556040518181527f848ba7852320e491d84ddc22f1f12fe48672aa22757fc4452703c9046d9982d790602001610c8e565b5f80546001600160a01b038381166001600160a01b0319831681178455604051919092169283917f8be0079c531659141344cd1fd0a4f28419497f9722a3daafe3b4186f6b6457e09190a35050565b80356001600160a01b0381168114610dc5575f80fd5b919050565b5f60208284031215610dda575f80fd5b61085f82610daf565b5f8083601f840112610df3575f80fd5b50813567ffffffffffffffff811115610e0a575f80fd5b6020830191508360208260051b8501011115610e24575f80fd5b9250929050565b5f805f8060408587031215610e3e575f80fd5b843567ffffffffffffffff80821115610e55575f80fd5b610e6188838901610de3565b90965094506020870135915080821115610e79575f80fd5b50610e8687828801610de3565b95989497509550505050565b634e487b7160e01b5f52604160045260245ffd5b5f6020808385031215610eb7575f80fd5b823567ffffffffffffffff80821115610ece575f80fd5b818501915085601f830112610ee1575f80fd5b813581811115610ef357610ef3610e92565b8060051b604051601f19603f83011681018181108582111715610f1857610f18610e92565b604052918252848201925083810185019188831115610f35575f80fd5b938501935b82851015610f5a57610f4b85610daf565b84529385019392850192610f3a565b98975050505050505050565b602080825282518282018190525f9190848201906040850190845b81811015610f9d57835183529284019291840191600101610f81565b50909695505050505050565b602080825282518282018190525f9190848201906040850190845b81811015610f9d5783516001600160a01b031683529284019291840191600101610fc4565b5f60208284031215610ff9575f80fd5b5035919050565b5f60208284031215611010575f80fd5b815160ff8116811461085f575f80fd5b634e487b7160e01b5f52603260045260245ffd5b5f808335601e19843603018112611049575f80fd5b83018035915067ffffffffffffffff821115611063575f80fd5b6020019150600581901b3603821315610e24575f80fd5b60208082528181018390525f908460408401835b868110156110ba576001600160a01b036110a784610daf565b168252918301919083019060010161108e565b509695505050505050565b5f602082840312156110d5575f80fd5b5051919050565b805169ffffffffffffffffffff81168114610dc5575f80fd5b5f805f805f60a08688031215611109575f80fd5b611112866110dc565b9450602086015193506040860151925060608601519150611135608087016110dc565b90509295509295909350565b634e487b7160e01b5f52601160045260245ffd5b8082018082111561116857611168611141565b92915050565b600181815b808511156111a857815f190482111561118e5761118e611141565b8085161561119b57918102915b93841c9390800290611173565b509250929050565b5f826111be57506001611168565b816111ca57505f611168565b81600181146111e057600281146111ea57611206565b6001915050611168565b60ff8411156111fb576111fb611141565b50506001821b611168565b5060208310610133831016604e8410600b8410161715611229575081810a611168565b611233838361116e565b805f190482111561124657611246611141565b029392505050565b5f61085f83836111b0565b808202811582820484141761116857611168611141565b5f8261128a57634e487b7160e01b5f52601260045260245ffd5b500490565b818103818111156111685761116861114156fea26469706673582212200b4537bf8697c7a54339e8bf3de766e62edb5e9a02c7934ff9e430de4a02b46464736f6c63430008190033",
  "devdoc": {
    "errors": {
      "OwnableInvalidOwner(address)": [
        {
          "details": "The owner is not a valid owner account. (eg. `address(0)`)"
        }
      ],
      "OwnableUnauthorizedAccount(address)": [
        {
          "details": "The caller account is not authorized to perform an operation."
        }
      ]
    },
    "kind": "dev",
    "methods": {
      "acceptOwnership()": {
        "details": "The new owner accepts the ownership transfer."
      },
      "decimals()": {
        "returns": {
          "_0": "The number of decimals."
        }
      },
      "getAssetPrice(address)": {
        "params": {
          "asset": "The address of the asset."
        },
        "returns": {
          "_0": "The price of the asset."
        }
      },
      "getAssetsPrices(address[])": {
        "params": {
          "assets": "The list of asset addresses."
        },
        "returns": {
          "prices": "The list of prices for the specified assets."
        }
      },
      "getFeeds(address)": {
        "params": {
          "asset": "The address of the asset."
        },
        "returns": {
          "_0": "An array of feed addresses used for this asset."
        }
      },
      "isSequencerValid()": {
        "returns": {
          "_0": "True if the sequencer oracle data is valid and chain is considered active."
        }
      },
      "owner()": {
        "details": "Returns the address of the current owner."
      },
      "pendingOwner()": {
        "details": "Returns the address of the pending owner."
      },
      "renounceOwnership()": {
        "details": "Leaves the contract without owner. It will not be possible to call `onlyOwner` functions. Can only be called by the current owner. NOTE: Renouncing ownership will leave the contract without an owner, thereby disabling any functionality that is only available to the owner."
      },
      "setFallbackOracle(address)": {
        "params": {
          "newFallbackOracle": "The address of the new fallback oracle contract."
        }
      },
      "setFeeds(address[],address[][])": {
        "details": "The length of `assets` must match the length of `feeds`.",
        "params": {
          "assets": "The list of asset addresses to update.",
          "feeds": "The list of feed address arrays, each corresponding to an asset in `assets`."
        }
      },
      "setGracePeriod(uint256)": {
        "params": {
          "newGracePeriod": "The new grace period in seconds."
        }
      },
      "setSequencerOracle(address)": {
        "params": {
          "newSequencerOracle": "The address of the new sequencer oracle contract."
        }
      },
      "setTimeout(uint256)": {
        "params": {
          "newTimeout": "The new timeout value in seconds."
        }
      },
      "transferOwnership(address)": {
        "details": "Starts the ownership transfer of the contract to a new account. Replaces the pending transfer if there is one. Can only be called by the current owner. Setting `newOwner` to the zero address is allowed; this can be used to cancel an initiated ownership transfer."
      }
    },
    "version": 1
  },
  "userdoc": {
    "kind": "user",
    "methods": {
      "decimals()": {
        "notice": "Retrieves the number of decimals used by the oracle."
      },
      "fallbackOracle()": {
        "notice": "Returns the address of a fallback oracle used when Chainlink feeds are unavailable or invalid."
      },
      "getAssetPrice(address)": {
        "notice": "Retrieves the price of a specified asset."
      },
      "getAssetsPrices(address[])": {
        "notice": "Retrieves the prices of a list of specified assets."
      },
      "getFeeds(address)": {
        "notice": "Retrieves the list of Chainlink feeds associated with a specific asset."
      },
      "gracePeriod()": {
        "notice": "Returns the grace period (in seconds) allowed after a sequencer outage before the feed is considered valid again."
      },
      "isSequencerValid()": {
        "notice": "Checks if the sequencer oracle deems the chain as properly sequenced."
      },
      "sequencerOracle()": {
        "notice": "Returns the address of the sequencer oracle contract."
      },
      "setFallbackOracle(address)": {
        "notice": "Sets a new fallback oracle address, used when the primary feeds are invalid or stale."
      },
      "setFeeds(address[],address[][])": {
        "notice": "Updates the Chainlink feed addresses for multiple assets at once."
      },
      "setGracePeriod(uint256)": {
        "notice": "Updates the grace period value, controlling how long after a sequencer outage the feed data remains invalid."
      },
      "setSequencerOracle(address)": {
        "notice": "Updates the sequencer oracle address, used to verify chain health/state."
      },
      "setTimeout(uint256)": {
        "notice": "Updates the timeout value, after which feed data is considered stale."
      },
      "timeout()": {
        "notice": "Returns the timeout value (in seconds) after which oracle data is considered invalid."
      }
    },
    "version": 1
  },
  "storageLayout": {
    "storage": [
      {
        "astId": 8,
        "contract": "src/oracle/ChainlinkOracle.sol:ChainlinkOracle",
        "label": "_owner",
        "offset": 0,
        "slot": "0",
        "type": "t_address"
      },
      {
        "astId": 156,
        "contract": "src/oracle/ChainlinkOracle.sol:ChainlinkOracle",
        "label": "_pendingOwner",
        "offset": 0,
        "slot": "1",
        "type": "t_address"
      },
      {
        "astId": 15647,
        "contract": "src/oracle/ChainlinkOracle.sol:ChainlinkOracle",
        "label": "timeout",
        "offset": 0,
        "slot": "2",
        "type": "t_uint256"
      },
      {
        "astId": 15650,
        "contract": "src/oracle/ChainlinkOracle.sol:ChainlinkOracle",
        "label": "sequencerOracle",
        "offset": 0,
        "slot": "3",
        "type": "t_address"
      },
      {
        "astId": 15653,
        "contract": "src/oracle/ChainlinkOracle.sol:ChainlinkOracle",
        "label": "gracePeriod",
        "offset": 0,
        "slot": "4",
        "type": "t_uint256"
      },
      {
        "astId": 15656,
        "contract": "src/oracle/ChainlinkOracle.sol:ChainlinkOracle",
        "label": "fallbackOracle",
        "offset": 0,
        "slot": "5",
        "type": "t_address"
      },
      {
        "astId": 15661,
        "contract": "src/oracle/ChainlinkOracle.sol:ChainlinkOracle",
        "label": "_feeds",
        "offset": 0,
        "slot": "6",
        "type": "t_mapping(t_address,t_array(t_address)dyn_storage)"
      }
    ],
    "types": {
      "t_address": {
        "encoding": "inplace",
        "label": "address",
        "numberOfBytes": "20"
      },
      "t_array(t_address)dyn_storage": {
        "base": "t_address",
        "encoding": "dynamic_array",
        "label": "address[]",
        "numberOfBytes": "32"
      },
      "t_mapping(t_address,t_array(t_address)dyn_storage)": {
        "encoding": "mapping",
        "key": "t_address",
        "label": "mapping(address => address[])",
        "numberOfBytes": "32",
        "value": "t_array(t_address)dyn_storage"
      },
      "t_uint256": {
        "encoding": "inplace",
        "label": "uint256",
        "numberOfBytes": "32"
      }
    }
  }
}