{
  "address": "0x1A0E22870dE507c140B7C765a04fCCd429B8343F",
  "abi": [
    {
      "inputs": [
        {
          "internalType": "address",
          "name": "token",
          "type": "address"
        }
      ],
      "name": "SafeERC20FailedOperation",
      "type": "error"
    },
    {
      "inputs": [
        {
          "internalType": "address",
          "name": "tokenIn",
          "type": "address"
        },
        {
          "internalType": "uint256",
          "name": "amountIn",
          "type": "uint256"
        },
        {
          "internalType": "address",
          "name": "tokenOut",
          "type": "address"
        },
        {
          "internalType": "uint256",
          "name": "amountOut",
          "type": "uint256"
        }
      ],
      "name": "swap",
      "outputs": [],
      "stateMutability": "nonpayable",
      "type": "function"
    },
    {
      "inputs": [
        {
          "internalType": "address",
          "name": "tokenOut",
          "type": "address"
        },
        {
          "internalType": "uint256",
          "name": "amountOut",
          "type": "uint256"
        }
      ],
      "name": "swapEthForToken",
      "outputs": [],
      "stateMutability": "payable",
      "type": "function"
    }
  ],
  "transactionHash": "0x9a9b81be13e0cbb7a05572423242871192dac64273ed6309db84b772e3f0062c",
  "args": [],
  "numDeployments": 1,
  "solcInputHash": "bb08b08c607a06add251fc51587fdadf",
  "bytecode": "0x6080604052348015600e575f80fd5b5061032c8061001c5f395ff3fe608060405260043610610028575f3560e01c80631874d3bd1461002c5780638a0ccd5614610041575b5f80fd5b61003f61003a36600461028d565b610060565b005b34801561004c575f80fd5b5061003f61005b3660046102b5565b61010c565b5f34116100f4576040517f08c379a000000000000000000000000000000000000000000000000000000000815260206004820152602a60248201527f4d6f636b537761703a204554482076616c7565206d757374206265206772656160448201527f746572207468616e20300000000000000000000000000000000000000000000060648201526084015b60405180910390fd5b6101086001600160a01b038316338361013b565b5050565b6101216001600160a01b0385163330866101b4565b6101356001600160a01b038316338361013b565b50505050565b6040516001600160a01b038381166024830152604482018390526101af91859182169063a9059cbb906064015b604051602081830303815290604052915060e01b6020820180517bffffffffffffffffffffffffffffffffffffffffffffffffffffffff83818316178352505050506101ed565b505050565b6040516001600160a01b0384811660248301528381166044830152606482018390526101359186918216906323b872dd90608401610168565b5f8060205f8451602086015f885af18061020c576040513d5f823e3d81fd5b50505f513d91508115610223578060011415610230565b6001600160a01b0384163b155b15610135576040517f5274afe70000000000000000000000000000000000000000000000000000000081526001600160a01b03851660048201526024016100eb565b80356001600160a01b0381168114610288575f80fd5b919050565b5f806040838503121561029e575f80fd5b6102a783610272565b946020939093013593505050565b5f805f80608085870312156102c8575f80fd5b6102d185610272565b9350602085013592506102e660408601610272565b939692955092936060013592505056fea2646970667358221220c92775947a55d66a9388d47d5bf7e6c705dada887482e54b5bd3cbd67083fbde64736f6c63430008190033",
  "devdoc": {
    "errors": {
      "SafeERC20FailedOperation(address)": [
        {
          "details": "An operation with an ERC-20 token failed."
        }
      ]
    },
    "kind": "dev",
    "methods": {},
    "version": 1
  },
  "userdoc": {
    "kind": "user",
    "methods": {},
    "version": 1
  },
  "storageLayout": {
    "storage": [],
    "types": null
  }
}